{
  "_format": "hh-sol-artifact-1",
  "contractName": "Transporter",
  "sourceName": "contracts/Transporter.sol",
  "abi": [
    {
      "inputs": [
        {
          "internalType": "contract Admin",
          "name": "adminAddress",
          "type": "address"
        }
      ],
      "stateMutability": "nonpayable",
      "type": "constructor"
    },
    {
      "inputs": [
        {
          "internalType": "contract Order",
          "name": "orderAddress",
          "type": "address"
        }
      ],
      "name": "deliverdOrder",
      "outputs": [],
      "stateMutability": "nonpayable",
      "type": "function"
    },
    {
      "inputs": [],
      "name": "getAllOrders",
      "outputs": [
        {
          "internalType": "address[]",
          "name": "",
          "type": "address[]"
        }
      ],
      "stateMutability": "view",
      "type": "function"
    },
    {
      "inputs": [
        {
          "internalType": "uint256",
          "name": "index",
          "type": "uint256"
        }
      ],
      "name": "getOrderByIndex",
      "outputs": [
        {
          "internalType": "address",
          "name": "",
          "type": "address"
        }
      ],
      "stateMutability": "view",
      "type": "function"
    },
    {
      "inputs": [
        {
          "internalType": "address",
          "name": "orderAddress",
          "type": "address"
        }
      ],
      "name": "getOrderStatus",
      "outputs": [
        {
          "internalType": "enum Order.OrderStatus",
          "name": "",
          "type": "uint8"
        }
      ],
      "stateMutability": "view",
      "type": "function"
    },
    {
      "inputs": [
        {
          "internalType": "address",
          "name": "",
          "type": "address"
        },
        {
          "internalType": "uint256",
          "name": "",
          "type": "uint256"
        }
      ],
      "name": "orders",
      "outputs": [
        {
          "internalType": "address",
          "name": "",
          "type": "address"
        }
      ],
      "stateMutability": "view",
      "type": "function"
    },
    {
      "inputs": [
        {
          "internalType": "contract Order",
          "name": "orderAddress",
          "type": "address"
        }
      ],
      "name": "outForDeliveryOrder",
      "outputs": [],
      "stateMutability": "nonpayable",
      "type": "function"
    },
    {
      "inputs": [
        {
          "internalType": "address",
          "name": "transporter_ethAddress",
          "type": "address"
        },
        {
          "internalType": "address",
          "name": "orderAddress",
          "type": "address"
        }
      ],
      "name": "setNewOrder",
      "outputs": [],
      "stateMutability": "nonpayable",
      "type": "function"
    },
    {
      "inputs": [
        {
          "internalType": "contract Order",
          "name": "orderAddress",
          "type": "address"
        }
      ],
      "name": "shippingOrder",
      "outputs": [],
      "stateMutability": "nonpayable",
      "type": "function"
    }
  ],
  "bytecode": "0x60806040523480156200001157600080fd5b50604051620012ae380380620012ae8339818101604052810190620000379190620000fc565b806000806101000a81548173ffffffffffffffffffffffffffffffffffffffff021916908373ffffffffffffffffffffffffffffffffffffffff160217905550506200012e565b600080fd5b600073ffffffffffffffffffffffffffffffffffffffff82169050919050565b6000620000b08262000083565b9050919050565b6000620000c482620000a3565b9050919050565b620000d681620000b7565b8114620000e257600080fd5b50565b600081519050620000f681620000cb565b92915050565b6000602082840312156200011557620001146200007e565b5b60006200012584828501620000e5565b91505092915050565b611170806200013e6000396000f3fe608060405234801561001057600080fd5b50600436106100885760003560e01c80637bea0d1c1161005b5780637bea0d1c14610125578063b6ee017514610143578063dabe8a711461015f578063fe07a9271461018f57610088565b806316bb7d9d1461008d578063191ad8a1146100a95780636f9d75cd146100c5578063793b8c6d146100f5575b600080fd5b6100a760048036038101906100a29190610bfd565b6101ab565b005b6100c360048036038101906100be9190610c56565b61040c565b005b6100df60048036038101906100da9190610c96565b6104b0565b6040516100ec9190610d3a565b60405180910390f35b61010f600480360381019061010a9190610d8b565b610528565b60405161011c9190610dda565b60405180910390f35b61012d610576565b60405161013a9190610eb3565b60405180910390f35b61015d60048036038101906101589190610bfd565b610641565b005b61017960048036038101906101749190610ed5565b6108a2565b6040516101869190610dda565b60405180910390f35b6101a960048036038101906101a49190610bfd565b610927565b005b600260048111156101bf576101be610cc3565b5b60008054906101000a900473ffffffffffffffffffffffffffffffffffffffff1673ffffffffffffffffffffffffffffffffffffffff166344276733336040518263ffffffff1660e01b81526004016102189190610dda565b602060405180830381865afa158015610235573d6000803e3d6000fd5b505050506040513d601f19601f820116820180604052508101906102599190610f3b565b60ff16600481111561026e5761026d610cc3565b5b60048111156102805761027f610cc3565b5b146102c0576040517f08c379a00000000000000000000000000000000000000000000000000000000081526004016102b790610fc5565b60405180910390fd5b803373ffffffffffffffffffffffffffffffffffffffff168173ffffffffffffffffffffffffffffffffffffffff16630a48a89b6040518163ffffffff1660e01b8152600401602060405180830381865afa158015610323573d6000803e3d6000fd5b505050506040513d601f19601f820116820180604052508101906103479190610ffa565b73ffffffffffffffffffffffffffffffffffffffff161461039d576040517f08c379a000000000000000000000000000000000000000000000000000000000815260040161039490611099565b60405180910390fd5b8173ffffffffffffffffffffffffffffffffffffffff166316bb7d9d336040518263ffffffff1660e01b81526004016103d69190610dda565b600060405180830381600087803b1580156103f057600080fd5b505af1158015610404573d6000803e3d6000fd5b505050505050565b600260008373ffffffffffffffffffffffffffffffffffffffff1673ffffffffffffffffffffffffffffffffffffffff168152602001908152602001600020819080600181540180825580915050600190039060005260206000200160009091909190916101000a81548173ffffffffffffffffffffffffffffffffffffffff021916908373ffffffffffffffffffffffffffffffffffffffff1602179055505050565b60008173ffffffffffffffffffffffffffffffffffffffff1663200d2ed26040518163ffffffff1660e01b8152600401602060405180830381865afa1580156104fd573d6000803e3d6000fd5b505050506040513d601f19601f8201168201806040525081019061052191906110de565b9050919050565b6002602052816000526040600020818154811061054457600080fd5b906000526020600020016000915091509054906101000a900473ffffffffffffffffffffffffffffffffffffffff1681565b6060600260003373ffffffffffffffffffffffffffffffffffffffff1673ffffffffffffffffffffffffffffffffffffffff16815260200190815260200160002080548060200260200160405190810160405280929190818152602001828054801561063757602002820191906000526020600020905b8160009054906101000a900473ffffffffffffffffffffffffffffffffffffffff1673ffffffffffffffffffffffffffffffffffffffff16815260200190600101908083116105ed575b5050505050905090565b6002600481111561065557610654610cc3565b5b60008054906101000a900473ffffffffffffffffffffffffffffffffffffffff1673ffffffffffffffffffffffffffffffffffffffff166344276733336040518263ffffffff1660e01b81526004016106ae9190610dda565b602060405180830381865afa1580156106cb573d6000803e3d6000fd5b505050506040513d601f19601f820116820180604052508101906106ef9190610f3b565b60ff16600481111561070457610703610cc3565b5b600481111561071657610715610cc3565b5b14610756576040517f08c379a000000000000000000000000000000000000000000000000000000000815260040161074d90610fc5565b60405180910390fd5b803373ffffffffffffffffffffffffffffffffffffffff168173ffffffffffffffffffffffffffffffffffffffff16630a48a89b6040518163ffffffff1660e01b8152600401602060405180830381865afa1580156107b9573d6000803e3d6000fd5b505050506040513d601f19601f820116820180604052508101906107dd9190610ffa565b73ffffffffffffffffffffffffffffffffffffffff1614610833576040517f08c379a000000000000000000000000000000000000000000000000000000000815260040161082a90611099565b60405180910390fd5b8173ffffffffffffffffffffffffffffffffffffffff1663b6ee0175336040518263ffffffff1660e01b815260040161086c9190610dda565b600060405180830381600087803b15801561088657600080fd5b505af115801561089a573d6000803e3d6000fd5b505050505050565b6000600260003373ffffffffffffffffffffffffffffffffffffffff1673ffffffffffffffffffffffffffffffffffffffff16815260200190815260200160002082815481106108f5576108f461110b565b5b9060005260206000200160009054906101000a900473ffffffffffffffffffffffffffffffffffffffff169050919050565b6002600481111561093b5761093a610cc3565b5b60008054906101000a900473ffffffffffffffffffffffffffffffffffffffff1673ffffffffffffffffffffffffffffffffffffffff166344276733336040518263ffffffff1660e01b81526004016109949190610dda565b602060405180830381865afa1580156109b1573d6000803e3d6000fd5b505050506040513d601f19601f820116820180604052508101906109d59190610f3b565b60ff1660048111156109ea576109e9610cc3565b5b60048111156109fc576109fb610cc3565b5b14610a3c576040517f08c379a0000000000000000000000000000000000000000000000000000000008152600401610a3390610fc5565b60405180910390fd5b803373ffffffffffffffffffffffffffffffffffffffff168173ffffffffffffffffffffffffffffffffffffffff16630a48a89b6040518163ffffffff1660e01b8152600401602060405180830381865afa158015610a9f573d6000803e3d6000fd5b505050506040513d601f19601f82011682018060405250810190610ac39190610ffa565b73ffffffffffffffffffffffffffffffffffffffff1614610b19576040517f08c379a0000000000000000000000000000000000000000000000000000000008152600401610b1090611099565b60405180910390fd5b8173ffffffffffffffffffffffffffffffffffffffff1663fe07a927336040518263ffffffff1660e01b8152600401610b529190610dda565b600060405180830381600087803b158015610b6c57600080fd5b505af1158015610b80573d6000803e3d6000fd5b505050505050565b600080fd5b600073ffffffffffffffffffffffffffffffffffffffff82169050919050565b6000610bb882610b8d565b9050919050565b6000610bca82610bad565b9050919050565b610bda81610bbf565b8114610be557600080fd5b50565b600081359050610bf781610bd1565b92915050565b600060208284031215610c1357610c12610b88565b5b6000610c2184828501610be8565b91505092915050565b610c3381610bad565b8114610c3e57600080fd5b50565b600081359050610c5081610c2a565b92915050565b60008060408385031215610c6d57610c6c610b88565b5b6000610c7b85828601610c41565b9250506020610c8c85828601610c41565b9150509250929050565b600060208284031215610cac57610cab610b88565b5b6000610cba84828501610c41565b91505092915050565b7f4e487b7100000000000000000000000000000000000000000000000000000000600052602160045260246000fd5b60078110610d0357610d02610cc3565b5b50565b6000819050610d1482610cf2565b919050565b6000610d2482610d06565b9050919050565b610d3481610d19565b82525050565b6000602082019050610d4f6000830184610d2b565b92915050565b6000819050919050565b610d6881610d55565b8114610d7357600080fd5b50565b600081359050610d8581610d5f565b92915050565b60008060408385031215610da257610da1610b88565b5b6000610db085828601610c41565b9250506020610dc185828601610d76565b9150509250929050565b610dd481610bad565b82525050565b6000602082019050610def6000830184610dcb565b92915050565b600081519050919050565b600082825260208201905092915050565b6000819050602082019050919050565b610e2a81610bad565b82525050565b6000610e3c8383610e21565b60208301905092915050565b6000602082019050919050565b6000610e6082610df5565b610e6a8185610e00565b9350610e7583610e11565b8060005b83811015610ea6578151610e8d8882610e30565b9750610e9883610e48565b925050600181019050610e79565b5085935050505092915050565b60006020820190508181036000830152610ecd8184610e55565b905092915050565b600060208284031215610eeb57610eea610b88565b5b6000610ef984828501610d76565b91505092915050565b600060ff82169050919050565b610f1881610f02565b8114610f2357600080fd5b50565b600081519050610f3581610f0f565b92915050565b600060208284031215610f5157610f50610b88565b5b6000610f5f84828501610f26565b91505092915050565b600082825260208201905092915050565b7f4f6e6c79207472616e73706f7274657220686173206163636573730000000000600082015250565b6000610faf601b83610f68565b9150610fba82610f79565b602082019050919050565b60006020820190508181036000830152610fde81610fa2565b9050919050565b600081519050610ff481610c2a565b92915050565b6000602082840312156110105761100f610b88565b5b600061101e84828501610fe5565b91505092915050565b7f496e76616c6964207472616e73706f72746572206164647265737320666f722060008201527f74686973206f7264657200000000000000000000000000000000000000000000602082015250565b6000611083602a83610f68565b915061108e82611027565b604082019050919050565b600060208201905081810360008301526110b281611076565b9050919050565b600781106110c657600080fd5b50565b6000815190506110d8816110b9565b92915050565b6000602082840312156110f4576110f3610b88565b5b6000611102848285016110c9565b91505092915050565b7f4e487b7100000000000000000000000000000000000000000000000000000000600052603260045260246000fdfea2646970667358221220d516098452c946af5a2936229a59d0fc2a6f9d76b3d8d124bd9bb31d12acb75a64736f6c63430008130033",
  "linkReferences": {},
  "deployedLinkReferences": {}
}