{
  "_format": "hh-sol-artifact-1",
  "contractName": "Transporter",
  "sourceName": "contracts/Transporter.sol",
  "abi": [
    {
      "inputs": [
        {
          "internalType": "contract Admin",
          "name": "adminAddress",
          "type": "address"
        }
      ],
      "stateMutability": "nonpayable",
      "type": "constructor"
    },
    {
      "inputs": [
        {
          "internalType": "contract Order",
          "name": "orderAddress",
          "type": "address"
        }
      ],
      "name": "deliverdOrder",
      "outputs": [],
      "stateMutability": "nonpayable",
      "type": "function"
    },
    {
      "inputs": [],
      "name": "getAllOrders",
      "outputs": [
        {
          "internalType": "address[]",
          "name": "",
          "type": "address[]"
        }
      ],
      "stateMutability": "view",
      "type": "function"
    },
    {
      "inputs": [
        {
          "internalType": "uint256",
          "name": "index",
          "type": "uint256"
        }
      ],
      "name": "getOrderByIndex",
      "outputs": [
        {
          "internalType": "address",
          "name": "",
          "type": "address"
        }
      ],
      "stateMutability": "view",
      "type": "function"
    },
    {
      "inputs": [
        {
          "internalType": "address",
          "name": "",
          "type": "address"
        },
        {
          "internalType": "uint256",
          "name": "",
          "type": "uint256"
        }
      ],
      "name": "orders",
      "outputs": [
        {
          "internalType": "address",
          "name": "",
          "type": "address"
        }
      ],
      "stateMutability": "view",
      "type": "function"
    },
    {
      "inputs": [
        {
          "internalType": "contract Order",
          "name": "orderAddress",
          "type": "address"
        }
      ],
      "name": "outForDeliveryOrder",
      "outputs": [],
      "stateMutability": "nonpayable",
      "type": "function"
    },
    {
      "inputs": [
        {
          "internalType": "address",
          "name": "transporter_ethAddress",
          "type": "address"
        },
        {
          "internalType": "address",
          "name": "orderAddress",
          "type": "address"
        }
      ],
      "name": "setNewOrder",
      "outputs": [],
      "stateMutability": "nonpayable",
      "type": "function"
    },
    {
      "inputs": [
        {
          "internalType": "contract Order",
          "name": "orderAddress",
          "type": "address"
        }
      ],
      "name": "shippingOrder",
      "outputs": [],
      "stateMutability": "nonpayable",
      "type": "function"
    }
  ],
  "bytecode": "0x60806040523480156200001157600080fd5b5060405162001119380380620011198339818101604052810190620000379190620000fc565b806000806101000a81548173ffffffffffffffffffffffffffffffffffffffff021916908373ffffffffffffffffffffffffffffffffffffffff160217905550506200012e565b600080fd5b600073ffffffffffffffffffffffffffffffffffffffff82169050919050565b6000620000b08262000083565b9050919050565b6000620000c482620000a3565b9050919050565b620000d681620000b7565b8114620000e257600080fd5b50565b600081519050620000f681620000cb565b92915050565b6000602082840312156200011557620001146200007e565b5b60006200012584828501620000e5565b91505092915050565b610fdb806200013e6000396000f3fe608060405234801561001057600080fd5b506004361061007d5760003560e01c80637bea0d1c1161005b5780637bea0d1c146100ea578063b6ee017514610108578063dabe8a7114610124578063fe07a927146101545761007d565b806316bb7d9d14610082578063191ad8a11461009e578063793b8c6d146100ba575b600080fd5b61009c60048036038101906100979190610b4a565b610170565b005b6100b860048036038101906100b39190610ba3565b6103d1565b005b6100d460048036038101906100cf9190610c19565b610475565b6040516100e19190610c68565b60405180910390f35b6100f26104c3565b6040516100ff9190610d41565b60405180910390f35b610122600480360381019061011d9190610b4a565b61058e565b005b61013e60048036038101906101399190610d63565b6107ef565b60405161014b9190610c68565b60405180910390f35b61016e60048036038101906101699190610b4a565b610874565b005b6002600481111561018457610183610d90565b5b60008054906101000a900473ffffffffffffffffffffffffffffffffffffffff1673ffffffffffffffffffffffffffffffffffffffff166344276733336040518263ffffffff1660e01b81526004016101dd9190610c68565b602060405180830381865afa1580156101fa573d6000803e3d6000fd5b505050506040513d601f19601f8201168201806040525081019061021e9190610df8565b60ff16600481111561023357610232610d90565b5b600481111561024557610244610d90565b5b14610285576040517f08c379a000000000000000000000000000000000000000000000000000000000815260040161027c90610e82565b60405180910390fd5b803373ffffffffffffffffffffffffffffffffffffffff168173ffffffffffffffffffffffffffffffffffffffff16630a48a89b6040518163ffffffff1660e01b8152600401602060405180830381865afa1580156102e8573d6000803e3d6000fd5b505050506040513d601f19601f8201168201806040525081019061030c9190610eb7565b73ffffffffffffffffffffffffffffffffffffffff1614610362576040517f08c379a000000000000000000000000000000000000000000000000000000000815260040161035990610f56565b60405180910390fd5b8173ffffffffffffffffffffffffffffffffffffffff166316bb7d9d336040518263ffffffff1660e01b815260040161039b9190610c68565b600060405180830381600087803b1580156103b557600080fd5b505af11580156103c9573d6000803e3d6000fd5b505050505050565b600260008373ffffffffffffffffffffffffffffffffffffffff1673ffffffffffffffffffffffffffffffffffffffff168152602001908152602001600020819080600181540180825580915050600190039060005260206000200160009091909190916101000a81548173ffffffffffffffffffffffffffffffffffffffff021916908373ffffffffffffffffffffffffffffffffffffffff1602179055505050565b6002602052816000526040600020818154811061049157600080fd5b906000526020600020016000915091509054906101000a900473ffffffffffffffffffffffffffffffffffffffff1681565b6060600260003373ffffffffffffffffffffffffffffffffffffffff1673ffffffffffffffffffffffffffffffffffffffff16815260200190815260200160002080548060200260200160405190810160405280929190818152602001828054801561058457602002820191906000526020600020905b8160009054906101000a900473ffffffffffffffffffffffffffffffffffffffff1673ffffffffffffffffffffffffffffffffffffffff168152602001906001019080831161053a575b5050505050905090565b600260048111156105a2576105a1610d90565b5b60008054906101000a900473ffffffffffffffffffffffffffffffffffffffff1673ffffffffffffffffffffffffffffffffffffffff166344276733336040518263ffffffff1660e01b81526004016105fb9190610c68565b602060405180830381865afa158015610618573d6000803e3d6000fd5b505050506040513d601f19601f8201168201806040525081019061063c9190610df8565b60ff16600481111561065157610650610d90565b5b600481111561066357610662610d90565b5b146106a3576040517f08c379a000000000000000000000000000000000000000000000000000000000815260040161069a90610e82565b60405180910390fd5b803373ffffffffffffffffffffffffffffffffffffffff168173ffffffffffffffffffffffffffffffffffffffff16630a48a89b6040518163ffffffff1660e01b8152600401602060405180830381865afa158015610706573d6000803e3d6000fd5b505050506040513d601f19601f8201168201806040525081019061072a9190610eb7565b73ffffffffffffffffffffffffffffffffffffffff1614610780576040517f08c379a000000000000000000000000000000000000000000000000000000000815260040161077790610f56565b60405180910390fd5b8173ffffffffffffffffffffffffffffffffffffffff1663b6ee0175336040518263ffffffff1660e01b81526004016107b99190610c68565b600060405180830381600087803b1580156107d357600080fd5b505af11580156107e7573d6000803e3d6000fd5b505050505050565b6000600260003373ffffffffffffffffffffffffffffffffffffffff1673ffffffffffffffffffffffffffffffffffffffff168152602001908152602001600020828154811061084257610841610f76565b5b9060005260206000200160009054906101000a900473ffffffffffffffffffffffffffffffffffffffff169050919050565b6002600481111561088857610887610d90565b5b60008054906101000a900473ffffffffffffffffffffffffffffffffffffffff1673ffffffffffffffffffffffffffffffffffffffff166344276733336040518263ffffffff1660e01b81526004016108e19190610c68565b602060405180830381865afa1580156108fe573d6000803e3d6000fd5b505050506040513d601f19601f820116820180604052508101906109229190610df8565b60ff16600481111561093757610936610d90565b5b600481111561094957610948610d90565b5b14610989576040517f08c379a000000000000000000000000000000000000000000000000000000000815260040161098090610e82565b60405180910390fd5b803373ffffffffffffffffffffffffffffffffffffffff168173ffffffffffffffffffffffffffffffffffffffff16630a48a89b6040518163ffffffff1660e01b8152600401602060405180830381865afa1580156109ec573d6000803e3d6000fd5b505050506040513d601f19601f82011682018060405250810190610a109190610eb7565b73ffffffffffffffffffffffffffffffffffffffff1614610a66576040517f08c379a0000000000000000000000000000000000000000000000000000000008152600401610a5d90610f56565b60405180910390fd5b8173ffffffffffffffffffffffffffffffffffffffff1663fe07a927336040518263ffffffff1660e01b8152600401610a9f9190610c68565b600060405180830381600087803b158015610ab957600080fd5b505af1158015610acd573d6000803e3d6000fd5b505050505050565b600080fd5b600073ffffffffffffffffffffffffffffffffffffffff82169050919050565b6000610b0582610ada565b9050919050565b6000610b1782610afa565b9050919050565b610b2781610b0c565b8114610b3257600080fd5b50565b600081359050610b4481610b1e565b92915050565b600060208284031215610b6057610b5f610ad5565b5b6000610b6e84828501610b35565b91505092915050565b610b8081610afa565b8114610b8b57600080fd5b50565b600081359050610b9d81610b77565b92915050565b60008060408385031215610bba57610bb9610ad5565b5b6000610bc885828601610b8e565b9250506020610bd985828601610b8e565b9150509250929050565b6000819050919050565b610bf681610be3565b8114610c0157600080fd5b50565b600081359050610c1381610bed565b92915050565b60008060408385031215610c3057610c2f610ad5565b5b6000610c3e85828601610b8e565b9250506020610c4f85828601610c04565b9150509250929050565b610c6281610afa565b82525050565b6000602082019050610c7d6000830184610c59565b92915050565b600081519050919050565b600082825260208201905092915050565b6000819050602082019050919050565b610cb881610afa565b82525050565b6000610cca8383610caf565b60208301905092915050565b6000602082019050919050565b6000610cee82610c83565b610cf88185610c8e565b9350610d0383610c9f565b8060005b83811015610d34578151610d1b8882610cbe565b9750610d2683610cd6565b925050600181019050610d07565b5085935050505092915050565b60006020820190508181036000830152610d5b8184610ce3565b905092915050565b600060208284031215610d7957610d78610ad5565b5b6000610d8784828501610c04565b91505092915050565b7f4e487b7100000000000000000000000000000000000000000000000000000000600052602160045260246000fd5b600060ff82169050919050565b610dd581610dbf565b8114610de057600080fd5b50565b600081519050610df281610dcc565b92915050565b600060208284031215610e0e57610e0d610ad5565b5b6000610e1c84828501610de3565b91505092915050565b600082825260208201905092915050565b7f4f6e6c79207472616e73706f7274657220686173206163636573730000000000600082015250565b6000610e6c601b83610e25565b9150610e7782610e36565b602082019050919050565b60006020820190508181036000830152610e9b81610e5f565b9050919050565b600081519050610eb181610b77565b92915050565b600060208284031215610ecd57610ecc610ad5565b5b6000610edb84828501610ea2565b91505092915050565b7f496e76616c6964207472616e73706f72746572206164647265737320666f722060008201527f74686973206f7264657200000000000000000000000000000000000000000000602082015250565b6000610f40602a83610e25565b9150610f4b82610ee4565b604082019050919050565b60006020820190508181036000830152610f6f81610f33565b9050919050565b7f4e487b7100000000000000000000000000000000000000000000000000000000600052603260045260246000fdfea264697066735822122037063ba4568070b3f6a186d86be4286e5f113a9ee5cae99471bca12c105c5bba64736f6c63430008130033",
  "linkReferences": {},
  "deployedLinkReferences": {}
}