{
  "_format": "hh-sol-artifact-1",
  "contractName": "Customer",
  "sourceName": "contracts/Customer.sol",
  "abi": [
    {
      "inputs": [
        {
          "internalType": "contract Admin",
          "name": "adminAddress",
          "type": "address"
        },
        {
          "internalType": "contract Seller",
          "name": "sellerAddress",
          "type": "address"
        },
        {
          "internalType": "contract Transporter",
          "name": "transporterAddress",
          "type": "address"
        }
      ],
      "stateMutability": "nonpayable",
      "type": "constructor"
    },
    {
      "inputs": [
        {
          "internalType": "uint256",
          "name": "index",
          "type": "uint256"
        }
      ],
      "name": "cancelOrder",
      "outputs": [],
      "stateMutability": "nonpayable",
      "type": "function"
    },
    {
      "inputs": [],
      "name": "getAllOrders",
      "outputs": [
        {
          "internalType": "address[]",
          "name": "",
          "type": "address[]"
        }
      ],
      "stateMutability": "view",
      "type": "function"
    },
    {
      "inputs": [
        {
          "internalType": "uint256",
          "name": "index",
          "type": "uint256"
        }
      ],
      "name": "getOrderByIndex",
      "outputs": [
        {
          "internalType": "address",
          "name": "",
          "type": "address"
        }
      ],
      "stateMutability": "view",
      "type": "function"
    },
    {
      "inputs": [
        {
          "internalType": "address",
          "name": "orderAddress",
          "type": "address"
        }
      ],
      "name": "getOrderDetail",
      "outputs": [
        {
          "internalType": "uint256",
          "name": "_orderId",
          "type": "uint256"
        },
        {
          "internalType": "address",
          "name": "_seller_ethAddress",
          "type": "address"
        },
        {
          "internalType": "address",
          "name": "_transporter_ethAddress",
          "type": "address"
        },
        {
          "internalType": "string",
          "name": "_location",
          "type": "string"
        },
        {
          "internalType": "string",
          "name": "_items",
          "type": "string"
        },
        {
          "internalType": "uint256",
          "name": "_quantity",
          "type": "uint256"
        },
        {
          "internalType": "uint256",
          "name": "_amount",
          "type": "uint256"
        },
        {
          "internalType": "enum Order.OrderStatus",
          "name": "_status",
          "type": "uint8"
        }
      ],
      "stateMutability": "view",
      "type": "function"
    },
    {
      "inputs": [
        {
          "internalType": "address",
          "name": "",
          "type": "address"
        },
        {
          "internalType": "uint256",
          "name": "",
          "type": "uint256"
        }
      ],
      "name": "orders",
      "outputs": [
        {
          "internalType": "address",
          "name": "",
          "type": "address"
        }
      ],
      "stateMutability": "view",
      "type": "function"
    },
    {
      "inputs": [
        {
          "internalType": "uint256",
          "name": "orderId",
          "type": "uint256"
        },
        {
          "internalType": "address",
          "name": "seller_ethAddress",
          "type": "address"
        },
        {
          "internalType": "address",
          "name": "transporter_ethAddress",
          "type": "address"
        },
        {
          "internalType": "string",
          "name": "location",
          "type": "string"
        },
        {
          "internalType": "uint8",
          "name": "quantity",
          "type": "uint8"
        },
        {
          "internalType": "string",
          "name": "items",
          "type": "string"
        }
      ],
      "name": "placeOrder",
      "outputs": [],
      "stateMutability": "payable",
      "type": "function"
    }
  ],
  "bytecode": "0x60806040523480156200001157600080fd5b506040516200457b3803806200457b83398181016040528101906200003791906200020a565b826000806101000a81548173ffffffffffffffffffffffffffffffffffffffff021916908373ffffffffffffffffffffffffffffffffffffffff16021790555081600160006101000a81548173ffffffffffffffffffffffffffffffffffffffff021916908373ffffffffffffffffffffffffffffffffffffffff16021790555080600260006101000a81548173ffffffffffffffffffffffffffffffffffffffff021916908373ffffffffffffffffffffffffffffffffffffffff16021790555050505062000266565b600080fd5b600073ffffffffffffffffffffffffffffffffffffffff82169050919050565b6000620001348262000107565b9050919050565b6000620001488262000127565b9050919050565b6200015a816200013b565b81146200016657600080fd5b50565b6000815190506200017a816200014f565b92915050565b60006200018d8262000127565b9050919050565b6200019f8162000180565b8114620001ab57600080fd5b50565b600081519050620001bf8162000194565b92915050565b6000620001d28262000127565b9050919050565b620001e481620001c5565b8114620001f057600080fd5b50565b6000815190506200020481620001d9565b92915050565b60008060006060848603121562000226576200022562000102565b5b6000620002368682870162000169565b93505060206200024986828701620001ae565b92505060406200025c86828701620001f3565b9150509250925092565b61430580620002766000396000f3fe6080604052600436106200005c5760003560e01c806341ad4fe214620000615780634a81e38914620000ac578063514fcac714620000cc578063793b8c6d14620000fa5780637bea0d1c146200013e578063dabe8a71146200016e575b600080fd5b3480156200006e57600080fd5b506200008d600480360381019062000087919062000c95565b620001b2565b604051620000a398979695949392919062000e0d565b60405180910390f35b620000ca6004803603810190620000c4919062001069565b6200025e565b005b348015620000d957600080fd5b50620000f86004803603810190620000f2919062001143565b62000854565b005b3480156200010757600080fd5b5062000126600480360381019062000120919062001175565b62000a6a565b604051620001359190620011bc565b60405180910390f35b3480156200014b57600080fd5b506200015662000ab9565b604051620001659190620012a7565b60405180910390f35b3480156200017b57600080fd5b506200019a600480360381019062000194919062001143565b62000b86565b604051620001a99190620011bc565b60405180910390f35b600080600060608060008060008873ffffffffffffffffffffffffffffffffffffffff166341ad4fe2336040518263ffffffff1660e01b8152600401620001fa9190620011bc565b600060405180830381865afa15801562000218573d6000803e3d6000fd5b505050506040513d6000823e3d601f19601f820116820180604052508101906200024391906200139f565b97509750975097509750975097509750919395975091939597565b6003600481111562000275576200027462000d8d565b5b60008054906101000a900473ffffffffffffffffffffffffffffffffffffffff1673ffffffffffffffffffffffffffffffffffffffff166344276733336040518263ffffffff1660e01b8152600401620002d09190620011bc565b602060405180830381865afa158015620002ee573d6000803e3d6000fd5b505050506040513d601f19601f82011682018060405250810190620003149190620014bd565b60ff1660048111156200032c576200032b62000d8d565b5b600481111562000341576200034062000d8d565b5b1462000384576040517f08c379a00000000000000000000000000000000000000000000000000000000081526004016200037b906200153f565b60405180910390fd5b600160048111156200039b576200039a62000d8d565b5b60008054906101000a900473ffffffffffffffffffffffffffffffffffffffff1673ffffffffffffffffffffffffffffffffffffffff166344276733876040518263ffffffff1660e01b8152600401620003f69190620011bc565b602060405180830381865afa15801562000414573d6000803e3d6000fd5b505050506040513d601f19601f820116820180604052508101906200043a9190620014bd565b60ff16600481111562000452576200045162000d8d565b5b600481111562000467576200046662000d8d565b5b14620004aa576040517f08c379a0000000000000000000000000000000000000000000000000000000008152600401620004a190620015b1565b60405180910390fd5b60026004811115620004c157620004c062000d8d565b5b60008054906101000a900473ffffffffffffffffffffffffffffffffffffffff1673ffffffffffffffffffffffffffffffffffffffff166344276733866040518263ffffffff1660e01b81526004016200051c9190620011bc565b602060405180830381865afa1580156200053a573d6000803e3d6000fd5b505050506040513d601f19601f82011682018060405250810190620005609190620014bd565b60ff16600481111562000578576200057762000d8d565b5b60048111156200058d576200058c62000d8d565b5b14620005d0576040517f08c379a0000000000000000000000000000000000000000000000000000000008152600401620005c79062001623565b60405180910390fd5b6000341162000616576040517f08c379a00000000000000000000000000000000000000000000000000000000081526004016200060d9062001695565b60405180910390fd5b60003460008054906101000a900473ffffffffffffffffffffffffffffffffffffffff168833898989898934604051620006509062000c0e565b620006649998979695949392919062001733565b6040518091039082f090508015801562000682573d6000803e3d6000fd5b509050600360003373ffffffffffffffffffffffffffffffffffffffff1673ffffffffffffffffffffffffffffffffffffffff168152602001908152602001600020819080600181540180825580915050600190039060005260206000200160009091909190916101000a81548173ffffffffffffffffffffffffffffffffffffffff021916908373ffffffffffffffffffffffffffffffffffffffff160217905550600160009054906101000a900473ffffffffffffffffffffffffffffffffffffffff1673ffffffffffffffffffffffffffffffffffffffff1663191ad8a187836040518363ffffffff1660e01b815260040162000784929190620017e0565b600060405180830381600087803b1580156200079f57600080fd5b505af1158015620007b4573d6000803e3d6000fd5b50505050600260009054906101000a900473ffffffffffffffffffffffffffffffffffffffff1673ffffffffffffffffffffffffffffffffffffffff1663191ad8a186836040518363ffffffff1660e01b815260040162000817929190620017e0565b600060405180830381600087803b1580156200083257600080fd5b505af115801562000847573d6000803e3d6000fd5b5050505050505050505050565b600360048111156200086b576200086a62000d8d565b5b60008054906101000a900473ffffffffffffffffffffffffffffffffffffffff1673ffffffffffffffffffffffffffffffffffffffff166344276733336040518263ffffffff1660e01b8152600401620008c69190620011bc565b602060405180830381865afa158015620008e4573d6000803e3d6000fd5b505050506040513d601f19601f820116820180604052508101906200090a9190620014bd565b60ff16600481111562000922576200092162000d8d565b5b600481111562000937576200093662000d8d565b5b146200097a576040517f08c379a000000000000000000000000000000000000000000000000000000000815260040162000971906200153f565b60405180910390fd5b600360003373ffffffffffffffffffffffffffffffffffffffff1673ffffffffffffffffffffffffffffffffffffffff1681526020019081526020016000208181548110620009ce57620009cd6200180d565b5b9060005260206000200160009054906101000a900473ffffffffffffffffffffffffffffffffffffffff1673ffffffffffffffffffffffffffffffffffffffff166399c49852336040518263ffffffff1660e01b815260040162000a339190620011bc565b600060405180830381600087803b15801562000a4e57600080fd5b505af115801562000a63573d6000803e3d6000fd5b5050505050565b6003602052816000526040600020818154811062000a8757600080fd5b906000526020600020016000915091509054906101000a900473ffffffffffffffffffffffffffffffffffffffff1681565b6060600360003373ffffffffffffffffffffffffffffffffffffffff1673ffffffffffffffffffffffffffffffffffffffff16815260200190815260200160002080548060200260200160405190810160405280929190818152602001828054801562000b7c57602002820191906000526020600020905b8160009054906101000a900473ffffffffffffffffffffffffffffffffffffffff1673ffffffffffffffffffffffffffffffffffffffff168152602001906001019080831162000b31575b5050505050905090565b6000600360003373ffffffffffffffffffffffffffffffffffffffff1673ffffffffffffffffffffffffffffffffffffffff168152602001908152602001600020828154811062000bdc5762000bdb6200180d565b5b9060005260206000200160009054906101000a900473ffffffffffffffffffffffffffffffffffffffff169050919050565b612a93806200183d83390190565b6000604051905090565b600080fd5b600080fd5b600073ffffffffffffffffffffffffffffffffffffffff82169050919050565b600062000c5d8262000c30565b9050919050565b62000c6f8162000c50565b811462000c7b57600080fd5b50565b60008135905062000c8f8162000c64565b92915050565b60006020828403121562000cae5762000cad62000c26565b5b600062000cbe8482850162000c7e565b91505092915050565b6000819050919050565b62000cdc8162000cc7565b82525050565b62000ced8162000c50565b82525050565b600081519050919050565b600082825260208201905092915050565b60005b8381101562000d2f57808201518184015260208101905062000d12565b60008484015250505050565b6000601f19601f8301169050919050565b600062000d598262000cf3565b62000d65818562000cfe565b935062000d7781856020860162000d0f565b62000d828162000d3b565b840191505092915050565b7f4e487b7100000000000000000000000000000000000000000000000000000000600052602160045260246000fd5b6007811062000dd05762000dcf62000d8d565b5b50565b600081905062000de38262000dbc565b919050565b600062000df58262000dd3565b9050919050565b62000e078162000de8565b82525050565b60006101008201905062000e25600083018b62000cd1565b62000e34602083018a62000ce2565b62000e43604083018962000ce2565b818103606083015262000e57818862000d4c565b9050818103608083015262000e6d818762000d4c565b905062000e7e60a083018662000cd1565b62000e8d60c083018562000cd1565b62000e9c60e083018462000dfc565b9998505050505050505050565b62000eb48162000cc7565b811462000ec057600080fd5b50565b60008135905062000ed48162000ea9565b92915050565b600080fd5b600080fd5b7f4e487b7100000000000000000000000000000000000000000000000000000000600052604160045260246000fd5b62000f1e8262000d3b565b810181811067ffffffffffffffff8211171562000f405762000f3f62000ee4565b5b80604052505050565b600062000f5562000c1c565b905062000f63828262000f13565b919050565b600067ffffffffffffffff82111562000f865762000f8562000ee4565b5b62000f918262000d3b565b9050602081019050919050565b82818337600083830152505050565b600062000fc462000fbe8462000f68565b62000f49565b90508281526020810184848401111562000fe35762000fe262000edf565b5b62000ff084828562000f9e565b509392505050565b600082601f83011262001010576200100f62000eda565b5b81356200102284826020860162000fad565b91505092915050565b600060ff82169050919050565b62001043816200102b565b81146200104f57600080fd5b50565b600081359050620010638162001038565b92915050565b60008060008060008060c0878903121562001089576200108862000c26565b5b60006200109989828a0162000ec3565b9650506020620010ac89828a0162000c7e565b9550506040620010bf89828a0162000c7e565b945050606087013567ffffffffffffffff811115620010e357620010e262000c2b565b5b620010f189828a0162000ff8565b93505060806200110489828a0162001052565b92505060a087013567ffffffffffffffff81111562001128576200112762000c2b565b5b6200113689828a0162000ff8565b9150509295509295509295565b6000602082840312156200115c576200115b62000c26565b5b60006200116c8482850162000ec3565b91505092915050565b600080604083850312156200118f576200118e62000c26565b5b60006200119f8582860162000c7e565b9250506020620011b28582860162000ec3565b9150509250929050565b6000602082019050620011d3600083018462000ce2565b92915050565b600081519050919050565b600082825260208201905092915050565b6000819050602082019050919050565b620012108162000c50565b82525050565b600062001224838362001205565b60208301905092915050565b6000602082019050919050565b60006200124a82620011d9565b620012568185620011e4565b93506200126383620011f5565b8060005b838110156200129a5781516200127e888262001216565b97506200128b8362001230565b92505060018101905062001267565b5085935050505092915050565b60006020820190508181036000830152620012c381846200123d565b905092915050565b600081519050620012dc8162000ea9565b92915050565b600081519050620012f38162000c64565b92915050565b6000620013106200130a8462000f68565b62000f49565b9050828152602081018484840111156200132f576200132e62000edf565b5b6200133c84828562000d0f565b509392505050565b600082601f8301126200135c576200135b62000eda565b5b81516200136e848260208601620012f9565b91505092915050565b600781106200138557600080fd5b50565b600081519050620013998162001377565b92915050565b600080600080600080600080610100898b031215620013c357620013c262000c26565b5b6000620013d38b828c01620012cb565b9850506020620013e68b828c01620012e2565b9750506040620013f98b828c01620012e2565b965050606089015167ffffffffffffffff8111156200141d576200141c62000c2b565b5b6200142b8b828c0162001344565b955050608089015167ffffffffffffffff8111156200144f576200144e62000c2b565b5b6200145d8b828c0162001344565b94505060a0620014708b828c01620012cb565b93505060c0620014838b828c01620012cb565b92505060e0620014968b828c0162001388565b9150509295985092959890939650565b600081519050620014b78162001038565b92915050565b600060208284031215620014d657620014d562000c26565b5b6000620014e684828501620014a6565b91505092915050565b7f4f6e6c7920637573746f6d657220686173206163636573730000000000000000600082015250565b60006200152760188362000cfe565b91506200153482620014ef565b602082019050919050565b600060208201905081810360008301526200155a8162001518565b9050919050565b7f496e76616c69642073656c6c6572206164647265737300000000000000000000600082015250565b60006200159960168362000cfe565b9150620015a68262001561565b602082019050919050565b60006020820190508181036000830152620015cc816200158a565b9050919050565b7f496e76616c6964207472616e73706f7274657220616464726573730000000000600082015250565b60006200160b601b8362000cfe565b91506200161882620015d3565b602082019050919050565b600060208201905081810360008301526200163e81620015fc565b9050919050565b7f596f75206861766520746f207061790000000000000000000000000000000000600082015250565b60006200167d600f8362000cfe565b91506200168a8262001645565b602082019050919050565b60006020820190508181036000830152620016b0816200166e565b9050919050565b6000819050919050565b6000620016e2620016dc620016d68462000c30565b620016b7565b62000c30565b9050919050565b6000620016f682620016c1565b9050919050565b60006200170a82620016e9565b9050919050565b6200171c81620016fd565b82525050565b6200172d816200102b565b82525050565b6000610120820190506200174b600083018c62001711565b6200175a602083018b62000cd1565b62001769604083018a62000ce2565b62001778606083018962000ce2565b62001787608083018862000ce2565b81810360a08301526200179b818762000d4c565b9050620017ac60c083018662001722565b81810360e0830152620017c0818562000d4c565b9050620017d261010083018462000cd1565b9a9950505050505050505050565b6000604082019050620017f7600083018562000ce2565b62001806602083018462000ce2565b9392505050565b7f4e487b7100000000000000000000000000000000000000000000000000000000600052603260045260246000fdfe608060405260405162002a9338038062002a9383398181016040528101906200002991906200046c565b886000806101000a81548173ffffffffffffffffffffffffffffffffffffffff021916908373ffffffffffffffffffffffffffffffffffffffff1602179055508760018190555086600260006101000a81548173ffffffffffffffffffffffffffffffffffffffff021916908373ffffffffffffffffffffffffffffffffffffffff16021790555085600360006101000a81548173ffffffffffffffffffffffffffffffffffffffff021916908373ffffffffffffffffffffffffffffffffffffffff16021790555084600460006101000a81548173ffffffffffffffffffffffffffffffffffffffff021916908373ffffffffffffffffffffffffffffffffffffffff1602179055508360059081620001449190620007ca565b5082600660006101000a81548160ff021916908360ff1602179055508160079081620001719190620007ca565b50806008819055506000600960006101000a81548160ff02191690836006811115620001a257620001a1620008b1565b5b0217905550505050505050505050620008e0565b6000604051905090565b600080fd5b600080fd5b600073ffffffffffffffffffffffffffffffffffffffff82169050919050565b6000620001f782620001ca565b9050919050565b60006200020b82620001ea565b9050919050565b6200021d81620001fe565b81146200022957600080fd5b50565b6000815190506200023d8162000212565b92915050565b6000819050919050565b620002588162000243565b81146200026457600080fd5b50565b60008151905062000278816200024d565b92915050565b6200028981620001ea565b81146200029557600080fd5b50565b600081519050620002a9816200027e565b92915050565b600080fd5b600080fd5b6000601f19601f8301169050919050565b7f4e487b7100000000000000000000000000000000000000000000000000000000600052604160045260246000fd5b6200030482620002b9565b810181811067ffffffffffffffff82111715620003265762000325620002ca565b5b80604052505050565b60006200033b620001b6565b9050620003498282620002f9565b919050565b600067ffffffffffffffff8211156200036c576200036b620002ca565b5b6200037782620002b9565b9050602081019050919050565b60005b83811015620003a457808201518184015260208101905062000387565b60008484015250505050565b6000620003c7620003c1846200034e565b6200032f565b905082815260208101848484011115620003e657620003e5620002b4565b5b620003f384828562000384565b509392505050565b600082601f830112620004135762000412620002af565b5b815162000425848260208601620003b0565b91505092915050565b600060ff82169050919050565b62000446816200042e565b81146200045257600080fd5b50565b60008151905062000466816200043b565b92915050565b60008060008060008060008060006101208a8c031215620004925762000491620001c0565b5b6000620004a28c828d016200022c565b9950506020620004b58c828d0162000267565b9850506040620004c88c828d0162000298565b9750506060620004db8c828d0162000298565b9650506080620004ee8c828d0162000298565b95505060a08a015167ffffffffffffffff811115620005125762000511620001c5565b5b620005208c828d01620003fb565b94505060c0620005338c828d0162000455565b93505060e08a015167ffffffffffffffff811115620005575762000556620001c5565b5b620005658c828d01620003fb565b925050610100620005798c828d0162000267565b9150509295985092959850929598565b600081519050919050565b7f4e487b7100000000000000000000000000000000000000000000000000000000600052602260045260246000fd5b60006002820490506001821680620005dc57607f821691505b602082108103620005f257620005f162000594565b5b50919050565b60008190508160005260206000209050919050565b60006020601f8301049050919050565b600082821b905092915050565b6000600883026200065c7fffffffffffffffffffffffffffffffffffffffffffffffffffffffffffffffff826200061d565b6200066886836200061d565b95508019841693508086168417925050509392505050565b6000819050919050565b6000620006ab620006a56200069f8462000243565b62000680565b62000243565b9050919050565b6000819050919050565b620006c7836200068a565b620006df620006d682620006b2565b8484546200062a565b825550505050565b600090565b620006f6620006e7565b62000703818484620006bc565b505050565b5b818110156200072b576200071f600082620006ec565b60018101905062000709565b5050565b601f8211156200077a576200074481620005f8565b6200074f846200060d565b810160208510156200075f578190505b620007776200076e856200060d565b83018262000708565b50505b505050565b600082821c905092915050565b60006200079f600019846008026200077f565b1980831691505092915050565b6000620007ba83836200078c565b9150826002028217905092915050565b620007d58262000589565b67ffffffffffffffff811115620007f157620007f0620002ca565b5b620007fd8254620005c3565b6200080a8282856200072f565b600060209050601f8311600181146200084257600084156200082d578287015190505b620008398582620007ac565b865550620008a9565b601f1984166200085286620005f8565b60005b828110156200087c5784890151825560018201915060208501945060208101905062000855565b868310156200089c578489015162000898601f8916826200078c565b8355505b6001600288020188555050505b505050505050565b7f4e487b7100000000000000000000000000000000000000000000000000000000600052602160045260246000fd5b6121a380620008f06000396000f3fe6080604052600436106100f35760003560e01c8063516f279e1161008a578063aa8c217c11610059578063aa8c217c1461030d578063b6ee017514610338578063c06fad0614610361578063fe07a9271461038c576100f3565b8063516f279e1461026557806356fb40d7146102905780637ee9e2d8146102bb57806399c49852146102e4576100f3565b806317fc45e2116100c657806317fc45e2146101a25780631e6e5263146101cd578063200d2ed2146101f657806341ad4fe214610221576100f3565b80630a360990146100f85780630a48a89b14610123578063163de5e51461014e57806316bb7d9d14610179575b600080fd5b34801561010457600080fd5b5061010d6103a8565b60405161011a9190611858565b60405180910390f35b34801561012f57600080fd5b506101386103ce565b6040516101459190611858565b60405180910390f35b34801561015a57600080fd5b506101636103f4565b604051610170919061188c565b60405180910390f35b34801561018557600080fd5b506101a0600480360381019061019b91906118d8565b6103fa565b005b3480156101ae57600080fd5b506101b7610645565b6040516101c49190611921565b60405180910390f35b3480156101d957600080fd5b506101f460048036038101906101ef91906118d8565b610658565b005b34801561020257600080fd5b5061020b6108a3565b60405161021891906119b3565b60405180910390f35b34801561022d57600080fd5b50610248600480360381019061024391906118d8565b6108b6565b60405161025c989796959493929190611a5e565b60405180910390f35b34801561027157600080fd5b5061027a610c13565b6040516102879190611aea565b60405180910390f35b34801561029c57600080fd5b506102a5610ca1565b6040516102b29190611858565b60405180910390f35b3480156102c757600080fd5b506102e260048036038101906102dd91906118d8565b610cc7565b005b3480156102f057600080fd5b5061030b600480360381019061030691906118d8565b610f12565b005b34801561031957600080fd5b50610322611282565b60405161032f919061188c565b60405180910390f35b34801561034457600080fd5b5061035f600480360381019061035a91906118d8565b611288565b005b34801561036d57600080fd5b506103766114d3565b6040516103839190611aea565b60405180910390f35b6103a660048036038101906103a191906118d8565b611561565b005b600260009054906101000a900473ffffffffffffffffffffffffffffffffffffffff1681565b600460009054906101000a900473ffffffffffffffffffffffffffffffffffffffff1681565b60015481565b806002600481111561040f5761040e61193c565b5b60008054906101000a900473ffffffffffffffffffffffffffffffffffffffff1673ffffffffffffffffffffffffffffffffffffffff166344276733836040518263ffffffff1660e01b81526004016104689190611858565b602060405180830381865afa158015610485573d6000803e3d6000fd5b505050506040513d601f19601f820116820180604052508101906104a99190611b38565b60ff1660048111156104be576104bd61193c565b5b60048111156104d0576104cf61193c565b5b14610510576040517f08c379a000000000000000000000000000000000000000000000000000000000815260040161050790611bb1565b60405180910390fd5b8073ffffffffffffffffffffffffffffffffffffffff16600460009054906101000a900473ffffffffffffffffffffffffffffffffffffffff1673ffffffffffffffffffffffffffffffffffffffff16146105a0576040517f08c379a000000000000000000000000000000000000000000000000000000000815260040161059790611c43565b60405180910390fd5b600260068111156105b4576105b361193c565b5b600960009054906101000a900460ff1660068111156105d6576105d561193c565b5b14610616576040517f08c379a000000000000000000000000000000000000000000000000000000000815260040161060d90611caf565b60405180910390fd5b6003600960006101000a81548160ff0219169083600681111561063c5761063b61193c565b5b02179055505050565b600660009054906101000a900460ff1681565b806001600481111561066d5761066c61193c565b5b60008054906101000a900473ffffffffffffffffffffffffffffffffffffffff1673ffffffffffffffffffffffffffffffffffffffff166344276733836040518263ffffffff1660e01b81526004016106c69190611858565b602060405180830381865afa1580156106e3573d6000803e3d6000fd5b505050506040513d601f19601f820116820180604052508101906107079190611b38565b60ff16600481111561071c5761071b61193c565b5b600481111561072e5761072d61193c565b5b1461076e576040517f08c379a000000000000000000000000000000000000000000000000000000000815260040161076590611d1b565b60405180910390fd5b8073ffffffffffffffffffffffffffffffffffffffff16600360009054906101000a900473ffffffffffffffffffffffffffffffffffffffff1673ffffffffffffffffffffffffffffffffffffffff16146107fe576040517f08c379a00000000000000000000000000000000000000000000000000000000081526004016107f590611dad565b60405180910390fd5b600160068111156108125761081161193c565b5b600960009054906101000a900460ff1660068111156108345761083361193c565b5b14610874576040517f08c379a000000000000000000000000000000000000000000000000000000000815260040161086b90611e19565b60405180910390fd5b6002600960006101000a81548160ff0219169083600681111561089a5761089961193c565b5b02179055505050565b600960009054906101000a900460ff1681565b6000806000606080600080600088600360048111156108d8576108d761193c565b5b60008054906101000a900473ffffffffffffffffffffffffffffffffffffffff1673ffffffffffffffffffffffffffffffffffffffff166344276733836040518263ffffffff1660e01b81526004016109319190611858565b602060405180830381865afa15801561094e573d6000803e3d6000fd5b505050506040513d601f19601f820116820180604052508101906109729190611b38565b60ff1660048111156109875761098661193c565b5b60048111156109995761099861193c565b5b146109d9576040517f08c379a00000000000000000000000000000000000000000000000000000000081526004016109d090611e85565b60405180910390fd5b8073ffffffffffffffffffffffffffffffffffffffff16600260009054906101000a900473ffffffffffffffffffffffffffffffffffffffff1673ffffffffffffffffffffffffffffffffffffffff1614610a69576040517f08c379a0000000000000000000000000000000000000000000000000000000008152600401610a6090611f17565b60405180910390fd5b600154600360009054906101000a900473ffffffffffffffffffffffffffffffffffffffff16600460009054906101000a900473ffffffffffffffffffffffffffffffffffffffff1660056007600660009054906101000a900460ff16600854600960009054906101000a900460ff16848054610ae590611f66565b80601f0160208091040260200160405190810160405280929190818152602001828054610b1190611f66565b8015610b5e5780601f10610b3357610100808354040283529160200191610b5e565b820191906000526020600020905b815481529060010190602001808311610b4157829003601f168201915b50505050509450838054610b7190611f66565b80601f0160208091040260200160405190810160405280929190818152602001828054610b9d90611f66565b8015610bea5780601f10610bbf57610100808354040283529160200191610bea565b820191906000526020600020905b815481529060010190602001808311610bcd57829003601f168201915b505050505093508260ff1692509850985098509850985098509850985050919395975091939597565b60058054610c2090611f66565b80601f0160208091040260200160405190810160405280929190818152602001828054610c4c90611f66565b8015610c995780601f10610c6e57610100808354040283529160200191610c99565b820191906000526020600020905b815481529060010190602001808311610c7c57829003601f168201915b505050505081565b600360009054906101000a900473ffffffffffffffffffffffffffffffffffffffff1681565b8060016004811115610cdc57610cdb61193c565b5b60008054906101000a900473ffffffffffffffffffffffffffffffffffffffff1673ffffffffffffffffffffffffffffffffffffffff166344276733836040518263ffffffff1660e01b8152600401610d359190611858565b602060405180830381865afa158015610d52573d6000803e3d6000fd5b505050506040513d601f19601f82011682018060405250810190610d769190611b38565b60ff166004811115610d8b57610d8a61193c565b5b6004811115610d9d57610d9c61193c565b5b14610ddd576040517f08c379a0000000000000000000000000000000000000000000000000000000008152600401610dd490611d1b565b60405180910390fd5b8073ffffffffffffffffffffffffffffffffffffffff16600360009054906101000a900473ffffffffffffffffffffffffffffffffffffffff1673ffffffffffffffffffffffffffffffffffffffff1614610e6d576040517f08c379a0000000000000000000000000000000000000000000000000000000008152600401610e6490611dad565b60405180910390fd5b60006006811115610e8157610e8061193c565b5b600960009054906101000a900460ff166006811115610ea357610ea261193c565b5b14610ee3576040517f08c379a0000000000000000000000000000000000000000000000000000000008152600401610eda90611fe3565b60405180910390fd5b6001600960006101000a81548160ff02191690836006811115610f0957610f0861193c565b5b02179055505050565b8060036004811115610f2757610f2661193c565b5b60008054906101000a900473ffffffffffffffffffffffffffffffffffffffff1673ffffffffffffffffffffffffffffffffffffffff166344276733836040518263ffffffff1660e01b8152600401610f809190611858565b602060405180830381865afa158015610f9d573d6000803e3d6000fd5b505050506040513d601f19601f82011682018060405250810190610fc19190611b38565b60ff166004811115610fd657610fd561193c565b5b6004811115610fe857610fe761193c565b5b14611028576040517f08c379a000000000000000000000000000000000000000000000000000000000815260040161101f90611e85565b60405180910390fd5b8073ffffffffffffffffffffffffffffffffffffffff16600260009054906101000a900473ffffffffffffffffffffffffffffffffffffffff1673ffffffffffffffffffffffffffffffffffffffff16146110b8576040517f08c379a00000000000000000000000000000000000000000000000000000000081526004016110af90611f17565b60405180910390fd5b600060068111156110cc576110cb61193c565b5b600960009054906101000a900460ff1660068111156110ee576110ed61193c565b5b148061112d5750600160068111156111095761110861193c565b5b600960009054906101000a900460ff16600681111561112b5761112a61193c565b5b145b8061116b5750600260068111156111475761114661193c565b5b600960009054906101000a900460ff1660068111156111695761116861193c565b5b145b806111a95750600360068111156111855761118461193c565b5b600960009054906101000a900460ff1660068111156111a7576111a661193c565b5b145b6111e8576040517f08c379a00000000000000000000000000000000000000000000000000000000081526004016111df9061204f565b60405180910390fd5b600260009054906101000a900473ffffffffffffffffffffffffffffffffffffffff1673ffffffffffffffffffffffffffffffffffffffff166108fc6008549081150290604051600060405180830381858888f19350505050158015611252573d6000803e3d6000fd5b506006600960006101000a81548160ff021916908360068111156112795761127861193c565b5b02179055505050565b60085481565b806002600481111561129d5761129c61193c565b5b60008054906101000a900473ffffffffffffffffffffffffffffffffffffffff1673ffffffffffffffffffffffffffffffffffffffff166344276733836040518263ffffffff1660e01b81526004016112f69190611858565b602060405180830381865afa158015611313573d6000803e3d6000fd5b505050506040513d601f19601f820116820180604052508101906113379190611b38565b60ff16600481111561134c5761134b61193c565b5b600481111561135e5761135d61193c565b5b1461139e576040517f08c379a000000000000000000000000000000000000000000000000000000000815260040161139590611bb1565b60405180910390fd5b8073ffffffffffffffffffffffffffffffffffffffff16600460009054906101000a900473ffffffffffffffffffffffffffffffffffffffff1673ffffffffffffffffffffffffffffffffffffffff161461142e576040517f08c379a000000000000000000000000000000000000000000000000000000000815260040161142590611c43565b60405180910390fd5b600360068111156114425761144161193c565b5b600960009054906101000a900460ff1660068111156114645761146361193c565b5b146114a4576040517f08c379a000000000000000000000000000000000000000000000000000000000815260040161149b906120bb565b60405180910390fd5b6004600960006101000a81548160ff021916908360068111156114ca576114c961193c565b5b02179055505050565b600780546114e090611f66565b80601f016020809104026020016040519081016040528092919081815260200182805461150c90611f66565b80156115595780601f1061152e57610100808354040283529160200191611559565b820191906000526020600020905b81548152906001019060200180831161153c57829003601f168201915b505050505081565b80600260048111156115765761157561193c565b5b60008054906101000a900473ffffffffffffffffffffffffffffffffffffffff1673ffffffffffffffffffffffffffffffffffffffff166344276733836040518263ffffffff1660e01b81526004016115cf9190611858565b602060405180830381865afa1580156115ec573d6000803e3d6000fd5b505050506040513d601f19601f820116820180604052508101906116109190611b38565b60ff1660048111156116255761162461193c565b5b60048111156116375761163661193c565b5b14611677576040517f08c379a000000000000000000000000000000000000000000000000000000000815260040161166e90611bb1565b60405180910390fd5b8073ffffffffffffffffffffffffffffffffffffffff16600460009054906101000a900473ffffffffffffffffffffffffffffffffffffffff1673ffffffffffffffffffffffffffffffffffffffff1614611707576040517f08c379a00000000000000000000000000000000000000000000000000000000081526004016116fe90611c43565b60405180910390fd5b6004600681111561171b5761171a61193c565b5b600960009054906101000a900460ff16600681111561173d5761173c61193c565b5b1461177d576040517f08c379a00000000000000000000000000000000000000000000000000000000081526004016117749061214d565b60405180910390fd5b600360009054906101000a900473ffffffffffffffffffffffffffffffffffffffff1673ffffffffffffffffffffffffffffffffffffffff166108fc6008549081150290604051600060405180830381858888f193505050501580156117e7573d6000803e3d6000fd5b506005600960006101000a81548160ff0219169083600681111561180e5761180d61193c565b5b02179055505050565b600073ffffffffffffffffffffffffffffffffffffffff82169050919050565b600061184282611817565b9050919050565b61185281611837565b82525050565b600060208201905061186d6000830184611849565b92915050565b6000819050919050565b61188681611873565b82525050565b60006020820190506118a1600083018461187d565b92915050565b600080fd5b6118b581611837565b81146118c057600080fd5b50565b6000813590506118d2816118ac565b92915050565b6000602082840312156118ee576118ed6118a7565b5b60006118fc848285016118c3565b91505092915050565b600060ff82169050919050565b61191b81611905565b82525050565b60006020820190506119366000830184611912565b92915050565b7f4e487b7100000000000000000000000000000000000000000000000000000000600052602160045260246000fd5b6007811061197c5761197b61193c565b5b50565b600081905061198d8261196b565b919050565b600061199d8261197f565b9050919050565b6119ad81611992565b82525050565b60006020820190506119c860008301846119a4565b92915050565b600081519050919050565b600082825260208201905092915050565b60005b83811015611a085780820151818401526020810190506119ed565b60008484015250505050565b6000601f19601f8301169050919050565b6000611a30826119ce565b611a3a81856119d9565b9350611a4a8185602086016119ea565b611a5381611a14565b840191505092915050565b600061010082019050611a74600083018b61187d565b611a81602083018a611849565b611a8e6040830189611849565b8181036060830152611aa08188611a25565b90508181036080830152611ab48187611a25565b9050611ac360a083018661187d565b611ad060c083018561187d565b611add60e08301846119a4565b9998505050505050505050565b60006020820190508181036000830152611b048184611a25565b905092915050565b611b1581611905565b8114611b2057600080fd5b50565b600081519050611b3281611b0c565b92915050565b600060208284031215611b4e57611b4d6118a7565b5b6000611b5c84828501611b23565b91505092915050565b7f4f6e6c79207472616e73706f7274657220686173206163636573730000000000600082015250565b6000611b9b601b836119d9565b9150611ba682611b65565b602082019050919050565b60006020820190508181036000830152611bca81611b8e565b9050919050565b7f496e76616c6964207472616e73706f72746572206164647265737320666f722060008201527f74686973206f7264657200000000000000000000000000000000000000000000602082015250565b6000611c2d602a836119d9565b9150611c3882611bd1565b604082019050919050565b60006020820190508181036000830152611c5c81611c20565b9050919050565b7f4f72646572206973206e6f7420696e207061636b6167696e6720737461746500600082015250565b6000611c99601f836119d9565b9150611ca482611c63565b602082019050919050565b60006020820190508181036000830152611cc881611c8c565b9050919050565b7f4f6e6c792073656c6c6572206861732061636365737300000000000000000000600082015250565b6000611d056016836119d9565b9150611d1082611ccf565b602082019050919050565b60006020820190508181036000830152611d3481611cf8565b9050919050565b7f496e76616c69642073656c6c6572206164647265737320666f7220746869732060008201527f6f72646572000000000000000000000000000000000000000000000000000000602082015250565b6000611d976025836119d9565b9150611da282611d3b565b604082019050919050565b60006020820190508181036000830152611dc681611d8a565b9050919050565b7f4f72646572206973206e6f7420696e20636f6e6669726d207374617465000000600082015250565b6000611e03601d836119d9565b9150611e0e82611dcd565b602082019050919050565b60006020820190508181036000830152611e3281611df6565b9050919050565b7f4f6e6c7920637573746f6d657220686173206163636573730000000000000000600082015250565b6000611e6f6018836119d9565b9150611e7a82611e39565b602082019050919050565b60006020820190508181036000830152611e9e81611e62565b9050919050565b7f496e76616c696420637573746f6d6572206164647265737320666f722074686960008201527f73206f7264657200000000000000000000000000000000000000000000000000602082015250565b6000611f016027836119d9565b9150611f0c82611ea5565b604082019050919050565b60006020820190508181036000830152611f3081611ef4565b9050919050565b7f4e487b7100000000000000000000000000000000000000000000000000000000600052602260045260246000fd5b60006002820490506001821680611f7e57607f821691505b602082108103611f9157611f90611f37565b5b50919050565b7f4f72646572206973206e6f7420696e20706c6163656420737461746500000000600082015250565b6000611fcd601c836119d9565b9150611fd882611f97565b602082019050919050565b60006020820190508181036000830152611ffc81611fc0565b9050919050565b7f4f726465722063616e6e6f742062652063616e63656c00000000000000000000600082015250565b60006120396016836119d9565b915061204482612003565b602082019050919050565b600060208201905081810360008301526120688161202c565b9050919050565b7f4f72646572206973206e6f7420696e2073686970706564207374617465000000600082015250565b60006120a5601d836119d9565b91506120b08261206f565b602082019050919050565b600060208201905081810360008301526120d481612098565b9050919050565b7f4f72646572206973206e6f7420696e206f757420666f722064656c697665727960008201527f2073746174650000000000000000000000000000000000000000000000000000602082015250565b60006121376026836119d9565b9150612142826120db565b604082019050919050565b600060208201905081810360008301526121668161212a565b905091905056fea2646970667358221220a937edf1c86951e170d9b054660400e34a45b56078886800e56337831d24f70d64736f6c63430008130033a26469706673582212209e4c269742c93fe12c95ab060db401a09a3a07d773fe90de33595f6acb15ee4164736f6c63430008130033",
  "linkReferences": {},
  "deployedLinkReferences": {}
}