{
  "_format": "hh-sol-artifact-1",
  "contractName": "Customer",
  "sourceName": "contracts/Customer.sol",
  "abi": [
    {
      "inputs": [
        {
          "internalType": "contract Admin",
          "name": "adminAddress",
          "type": "address"
        },
        {
          "internalType": "contract Seller",
          "name": "sellerAddress",
          "type": "address"
        },
        {
          "internalType": "contract Transporter",
          "name": "transporterAddress",
          "type": "address"
        }
      ],
      "stateMutability": "nonpayable",
      "type": "constructor"
    },
    {
      "inputs": [
        {
          "internalType": "uint256",
          "name": "index",
          "type": "uint256"
        }
      ],
      "name": "cancelOrder",
      "outputs": [],
      "stateMutability": "nonpayable",
      "type": "function"
    },
    {
      "inputs": [],
      "name": "getAllOrders",
      "outputs": [
        {
          "internalType": "address[]",
          "name": "",
          "type": "address[]"
        }
      ],
      "stateMutability": "view",
      "type": "function"
    },
    {
      "inputs": [
        {
          "internalType": "uint256",
          "name": "index",
          "type": "uint256"
        }
      ],
      "name": "getOrderByIndex",
      "outputs": [
        {
          "internalType": "address",
          "name": "",
          "type": "address"
        }
      ],
      "stateMutability": "view",
      "type": "function"
    },
    {
      "inputs": [
        {
          "internalType": "address",
          "name": "orderAddress",
          "type": "address"
        }
      ],
      "name": "getOrderDetail",
      "outputs": [
        {
          "internalType": "uint256",
          "name": "_orderId",
          "type": "uint256"
        },
        {
          "internalType": "address",
          "name": "_customer_ethAddress",
          "type": "address"
        },
        {
          "internalType": "address",
          "name": "_seller_ethAddress",
          "type": "address"
        },
        {
          "internalType": "address",
          "name": "_transporter_ethAddress",
          "type": "address"
        },
        {
          "internalType": "string",
          "name": "_location",
          "type": "string"
        },
        {
          "internalType": "string",
          "name": "_items",
          "type": "string"
        },
        {
          "internalType": "uint256",
          "name": "_quantity",
          "type": "uint256"
        },
        {
          "internalType": "uint256",
          "name": "_amount",
          "type": "uint256"
        },
        {
          "internalType": "enum Order.OrderStatus",
          "name": "_status",
          "type": "uint8"
        }
      ],
      "stateMutability": "view",
      "type": "function"
    },
    {
      "inputs": [
        {
          "internalType": "address",
          "name": "orderAddress",
          "type": "address"
        }
      ],
      "name": "getOrderStatus",
      "outputs": [
        {
          "internalType": "enum Order.OrderStatus",
          "name": "",
          "type": "uint8"
        }
      ],
      "stateMutability": "view",
      "type": "function"
    },
    {
      "inputs": [
        {
          "internalType": "address",
          "name": "",
          "type": "address"
        },
        {
          "internalType": "uint256",
          "name": "",
          "type": "uint256"
        }
      ],
      "name": "orders",
      "outputs": [
        {
          "internalType": "address",
          "name": "",
          "type": "address"
        }
      ],
      "stateMutability": "view",
      "type": "function"
    },
    {
      "inputs": [
        {
          "internalType": "uint256",
          "name": "orderId",
          "type": "uint256"
        },
        {
          "internalType": "address",
          "name": "seller_ethAddress",
          "type": "address"
        },
        {
          "internalType": "address",
          "name": "transporter_ethAddress",
          "type": "address"
        },
        {
          "internalType": "string",
          "name": "location",
          "type": "string"
        },
        {
          "internalType": "uint8",
          "name": "quantity",
          "type": "uint8"
        },
        {
          "internalType": "string",
          "name": "items",
          "type": "string"
        }
      ],
      "name": "placeOrder",
      "outputs": [],
      "stateMutability": "payable",
      "type": "function"
    }
  ],
  "bytecode": "0x60806040523480156200001157600080fd5b50604051620045443803806200454483398181016040528101906200003791906200020a565b826000806101000a81548173ffffffffffffffffffffffffffffffffffffffff021916908373ffffffffffffffffffffffffffffffffffffffff16021790555081600160006101000a81548173ffffffffffffffffffffffffffffffffffffffff021916908373ffffffffffffffffffffffffffffffffffffffff16021790555080600260006101000a81548173ffffffffffffffffffffffffffffffffffffffff021916908373ffffffffffffffffffffffffffffffffffffffff16021790555050505062000266565b600080fd5b600073ffffffffffffffffffffffffffffffffffffffff82169050919050565b6000620001348262000107565b9050919050565b6000620001488262000127565b9050919050565b6200015a816200013b565b81146200016657600080fd5b50565b6000815190506200017a816200014f565b92915050565b60006200018d8262000127565b9050919050565b6200019f8162000180565b8114620001ab57600080fd5b50565b600081519050620001bf8162000194565b92915050565b6000620001d28262000127565b9050919050565b620001e481620001c5565b8114620001f057600080fd5b50565b6000815190506200020481620001d9565b92915050565b60008060006060848603121562000226576200022562000102565b5b6000620002368682870162000169565b93505060206200024986828701620001ae565b92505060406200025c86828701620001f3565b9150509250925092565b6142ce80620002766000396000f3fe6080604052600436106200007a5760003560e01c80636f9d75cd11620000555780636f9d75cd1462000119578063793b8c6d146200015d5780637bea0d1c14620001a1578063dabe8a7114620001d1576200007a565b806341ad4fe2146200007f5780634a81e38914620000cb578063514fcac714620000eb575b600080fd5b3480156200008c57600080fd5b50620000ab6004803603810190620000a5919062000d6b565b62000215565b604051620000c29998979695949392919062000ee3565b60405180910390f35b620000e96004803603810190620000e3919062001150565b620002b9565b005b348015620000f857600080fd5b506200011760048036038101906200011191906200122a565b620008af565b005b3480156200012657600080fd5b506200014560048036038101906200013f919062000d6b565b62000ac5565b6040516200015491906200125c565b60405180910390f35b3480156200016a57600080fd5b5062000189600480360381019062000183919062001279565b62000b40565b604051620001989190620012c0565b60405180910390f35b348015620001ae57600080fd5b50620001b962000b8f565b604051620001c89190620013ab565b60405180910390f35b348015620001de57600080fd5b50620001fd6004803603810190620001f791906200122a565b62000c5c565b6040516200020c9190620012c0565b60405180910390f35b60008060008060608060008060008973ffffffffffffffffffffffffffffffffffffffff16634f2f12916040518163ffffffff1660e01b8152600401600060405180830381865afa1580156200026f573d6000803e3d6000fd5b505050506040513d6000823e3d601f19601f820116820180604052508101906200029a9190620014a3565b9850985098509850985098509850985098509193959799909294969850565b60036004811115620002d057620002cf62000e63565b5b60008054906101000a900473ffffffffffffffffffffffffffffffffffffffff1673ffffffffffffffffffffffffffffffffffffffff166344276733336040518263ffffffff1660e01b81526004016200032b9190620012c0565b602060405180830381865afa15801562000349573d6000803e3d6000fd5b505050506040513d601f19601f820116820180604052508101906200036f9190620015d7565b60ff16600481111562000387576200038662000e63565b5b60048111156200039c576200039b62000e63565b5b14620003df576040517f08c379a0000000000000000000000000000000000000000000000000000000008152600401620003d69062001659565b60405180910390fd5b60016004811115620003f657620003f562000e63565b5b60008054906101000a900473ffffffffffffffffffffffffffffffffffffffff1673ffffffffffffffffffffffffffffffffffffffff166344276733876040518263ffffffff1660e01b8152600401620004519190620012c0565b602060405180830381865afa1580156200046f573d6000803e3d6000fd5b505050506040513d601f19601f82011682018060405250810190620004959190620015d7565b60ff166004811115620004ad57620004ac62000e63565b5b6004811115620004c257620004c162000e63565b5b1462000505576040517f08c379a0000000000000000000000000000000000000000000000000000000008152600401620004fc90620016cb565b60405180910390fd5b600260048111156200051c576200051b62000e63565b5b60008054906101000a900473ffffffffffffffffffffffffffffffffffffffff1673ffffffffffffffffffffffffffffffffffffffff166344276733866040518263ffffffff1660e01b8152600401620005779190620012c0565b602060405180830381865afa15801562000595573d6000803e3d6000fd5b505050506040513d601f19601f82011682018060405250810190620005bb9190620015d7565b60ff166004811115620005d357620005d262000e63565b5b6004811115620005e857620005e762000e63565b5b146200062b576040517f08c379a000000000000000000000000000000000000000000000000000000000815260040162000622906200173d565b60405180910390fd5b6000341162000671576040517f08c379a00000000000000000000000000000000000000000000000000000000081526004016200066890620017af565b60405180910390fd5b60003460008054906101000a900473ffffffffffffffffffffffffffffffffffffffff168833898989898934604051620006ab9062000ce4565b620006bf999897969594939291906200184d565b6040518091039082f0905080158015620006dd573d6000803e3d6000fd5b509050600360003373ffffffffffffffffffffffffffffffffffffffff1673ffffffffffffffffffffffffffffffffffffffff168152602001908152602001600020819080600181540180825580915050600190039060005260206000200160009091909190916101000a81548173ffffffffffffffffffffffffffffffffffffffff021916908373ffffffffffffffffffffffffffffffffffffffff160217905550600160009054906101000a900473ffffffffffffffffffffffffffffffffffffffff1673ffffffffffffffffffffffffffffffffffffffff1663191ad8a187836040518363ffffffff1660e01b8152600401620007df929190620018fa565b600060405180830381600087803b158015620007fa57600080fd5b505af11580156200080f573d6000803e3d6000fd5b50505050600260009054906101000a900473ffffffffffffffffffffffffffffffffffffffff1673ffffffffffffffffffffffffffffffffffffffff1663191ad8a186836040518363ffffffff1660e01b815260040162000872929190620018fa565b600060405180830381600087803b1580156200088d57600080fd5b505af1158015620008a2573d6000803e3d6000fd5b5050505050505050505050565b60036004811115620008c657620008c562000e63565b5b60008054906101000a900473ffffffffffffffffffffffffffffffffffffffff1673ffffffffffffffffffffffffffffffffffffffff166344276733336040518263ffffffff1660e01b8152600401620009219190620012c0565b602060405180830381865afa1580156200093f573d6000803e3d6000fd5b505050506040513d601f19601f82011682018060405250810190620009659190620015d7565b60ff1660048111156200097d576200097c62000e63565b5b600481111562000992576200099162000e63565b5b14620009d5576040517f08c379a0000000000000000000000000000000000000000000000000000000008152600401620009cc9062001659565b60405180910390fd5b600360003373ffffffffffffffffffffffffffffffffffffffff1673ffffffffffffffffffffffffffffffffffffffff168152602001908152602001600020818154811062000a295762000a2862001927565b5b9060005260206000200160009054906101000a900473ffffffffffffffffffffffffffffffffffffffff1673ffffffffffffffffffffffffffffffffffffffff166399c49852336040518263ffffffff1660e01b815260040162000a8e9190620012c0565b600060405180830381600087803b15801562000aa957600080fd5b505af115801562000abe573d6000803e3d6000fd5b5050505050565b60008173ffffffffffffffffffffffffffffffffffffffff1663200d2ed26040518163ffffffff1660e01b8152600401602060405180830381865afa15801562000b13573d6000803e3d6000fd5b505050506040513d601f19601f8201168201806040525081019062000b39919062001956565b9050919050565b6003602052816000526040600020818154811062000b5d57600080fd5b906000526020600020016000915091509054906101000a900473ffffffffffffffffffffffffffffffffffffffff1681565b6060600360003373ffffffffffffffffffffffffffffffffffffffff1673ffffffffffffffffffffffffffffffffffffffff16815260200190815260200160002080548060200260200160405190810160405280929190818152602001828054801562000c5257602002820191906000526020600020905b8160009054906101000a900473ffffffffffffffffffffffffffffffffffffffff1673ffffffffffffffffffffffffffffffffffffffff168152602001906001019080831162000c07575b5050505050905090565b6000600360003373ffffffffffffffffffffffffffffffffffffffff1673ffffffffffffffffffffffffffffffffffffffff168152602001908152602001600020828154811062000cb25762000cb162001927565b5b9060005260206000200160009054906101000a900473ffffffffffffffffffffffffffffffffffffffff169050919050565b612910806200198983390190565b6000604051905090565b600080fd5b600080fd5b600073ffffffffffffffffffffffffffffffffffffffff82169050919050565b600062000d338262000d06565b9050919050565b62000d458162000d26565b811462000d5157600080fd5b50565b60008135905062000d658162000d3a565b92915050565b60006020828403121562000d845762000d8362000cfc565b5b600062000d948482850162000d54565b91505092915050565b6000819050919050565b62000db28162000d9d565b82525050565b62000dc38162000d26565b82525050565b600081519050919050565b600082825260208201905092915050565b60005b8381101562000e0557808201518184015260208101905062000de8565b60008484015250505050565b6000601f19601f8301169050919050565b600062000e2f8262000dc9565b62000e3b818562000dd4565b935062000e4d81856020860162000de5565b62000e588162000e11565b840191505092915050565b7f4e487b7100000000000000000000000000000000000000000000000000000000600052602160045260246000fd5b6007811062000ea65762000ea562000e63565b5b50565b600081905062000eb98262000e92565b919050565b600062000ecb8262000ea9565b9050919050565b62000edd8162000ebe565b82525050565b60006101208201905062000efb600083018c62000da7565b62000f0a602083018b62000db8565b62000f19604083018a62000db8565b62000f28606083018962000db8565b818103608083015262000f3c818862000e22565b905081810360a083015262000f52818762000e22565b905062000f6360c083018662000da7565b62000f7260e083018562000da7565b62000f8261010083018462000ed2565b9a9950505050505050505050565b62000f9b8162000d9d565b811462000fa757600080fd5b50565b60008135905062000fbb8162000f90565b92915050565b600080fd5b600080fd5b7f4e487b7100000000000000000000000000000000000000000000000000000000600052604160045260246000fd5b620010058262000e11565b810181811067ffffffffffffffff8211171562001027576200102662000fcb565b5b80604052505050565b60006200103c62000cf2565b90506200104a828262000ffa565b919050565b600067ffffffffffffffff8211156200106d576200106c62000fcb565b5b620010788262000e11565b9050602081019050919050565b82818337600083830152505050565b6000620010ab620010a5846200104f565b62001030565b905082815260208101848484011115620010ca57620010c962000fc6565b5b620010d784828562001085565b509392505050565b600082601f830112620010f757620010f662000fc1565b5b81356200110984826020860162001094565b91505092915050565b600060ff82169050919050565b6200112a8162001112565b81146200113657600080fd5b50565b6000813590506200114a816200111f565b92915050565b60008060008060008060c0878903121562001170576200116f62000cfc565b5b60006200118089828a0162000faa565b96505060206200119389828a0162000d54565b9550506040620011a689828a0162000d54565b945050606087013567ffffffffffffffff811115620011ca57620011c962000d01565b5b620011d889828a01620010df565b9350506080620011eb89828a0162001139565b92505060a087013567ffffffffffffffff8111156200120f576200120e62000d01565b5b6200121d89828a01620010df565b9150509295509295509295565b60006020828403121562001243576200124262000cfc565b5b6000620012538482850162000faa565b91505092915050565b600060208201905062001273600083018462000ed2565b92915050565b6000806040838503121562001293576200129262000cfc565b5b6000620012a38582860162000d54565b9250506020620012b68582860162000faa565b9150509250929050565b6000602082019050620012d7600083018462000db8565b92915050565b600081519050919050565b600082825260208201905092915050565b6000819050602082019050919050565b620013148162000d26565b82525050565b600062001328838362001309565b60208301905092915050565b6000602082019050919050565b60006200134e82620012dd565b6200135a8185620012e8565b93506200136783620012f9565b8060005b838110156200139e5781516200138288826200131a565b97506200138f8362001334565b9250506001810190506200136b565b5085935050505092915050565b60006020820190508181036000830152620013c7818462001341565b905092915050565b600081519050620013e08162000f90565b92915050565b600081519050620013f78162000d3a565b92915050565b6000620014146200140e846200104f565b62001030565b90508281526020810184848401111562001433576200143262000fc6565b5b6200144084828562000de5565b509392505050565b600082601f83011262001460576200145f62000fc1565b5b815162001472848260208601620013fd565b91505092915050565b600781106200148957600080fd5b50565b6000815190506200149d816200147b565b92915050565b60008060008060008060008060006101208a8c031215620014c957620014c862000cfc565b5b6000620014d98c828d01620013cf565b9950506020620014ec8c828d01620013e6565b9850506040620014ff8c828d01620013e6565b9750506060620015128c828d01620013e6565b96505060808a015167ffffffffffffffff81111562001536576200153562000d01565b5b620015448c828d0162001448565b95505060a08a015167ffffffffffffffff81111562001568576200156762000d01565b5b620015768c828d0162001448565b94505060c0620015898c828d01620013cf565b93505060e06200159c8c828d01620013cf565b925050610100620015b08c828d016200148c565b9150509295985092959850929598565b600081519050620015d1816200111f565b92915050565b600060208284031215620015f057620015ef62000cfc565b5b60006200160084828501620015c0565b91505092915050565b7f4f6e6c7920637573746f6d657220686173206163636573730000000000000000600082015250565b60006200164160188362000dd4565b91506200164e8262001609565b602082019050919050565b60006020820190508181036000830152620016748162001632565b9050919050565b7f496e76616c69642073656c6c6572206164647265737300000000000000000000600082015250565b6000620016b360168362000dd4565b9150620016c0826200167b565b602082019050919050565b60006020820190508181036000830152620016e681620016a4565b9050919050565b7f496e76616c6964207472616e73706f7274657220616464726573730000000000600082015250565b600062001725601b8362000dd4565b91506200173282620016ed565b602082019050919050565b60006020820190508181036000830152620017588162001716565b9050919050565b7f596f75206861766520746f207061790000000000000000000000000000000000600082015250565b600062001797600f8362000dd4565b9150620017a4826200175f565b602082019050919050565b60006020820190508181036000830152620017ca8162001788565b9050919050565b6000819050919050565b6000620017fc620017f6620017f08462000d06565b620017d1565b62000d06565b9050919050565b60006200181082620017db565b9050919050565b6000620018248262001803565b9050919050565b620018368162001817565b82525050565b620018478162001112565b82525050565b60006101208201905062001865600083018c6200182b565b62001874602083018b62000da7565b62001883604083018a62000db8565b62001892606083018962000db8565b620018a1608083018862000db8565b81810360a0830152620018b5818762000e22565b9050620018c660c08301866200183c565b81810360e0830152620018da818562000e22565b9050620018ec61010083018462000da7565b9a9950505050505050505050565b600060408201905062001911600083018562000db8565b62001920602083018462000db8565b9392505050565b7f4e487b7100000000000000000000000000000000000000000000000000000000600052603260045260246000fd5b6000602082840312156200196f576200196e62000cfc565b5b60006200197f848285016200148c565b9150509291505056fe6080604052604051620029103803806200291083398181016040528101906200002991906200046c565b886000806101000a81548173ffffffffffffffffffffffffffffffffffffffff021916908373ffffffffffffffffffffffffffffffffffffffff1602179055508760018190555086600260006101000a81548173ffffffffffffffffffffffffffffffffffffffff021916908373ffffffffffffffffffffffffffffffffffffffff16021790555085600360006101000a81548173ffffffffffffffffffffffffffffffffffffffff021916908373ffffffffffffffffffffffffffffffffffffffff16021790555084600460006101000a81548173ffffffffffffffffffffffffffffffffffffffff021916908373ffffffffffffffffffffffffffffffffffffffff1602179055508360059081620001449190620007ca565b5082600660006101000a81548160ff021916908360ff1602179055508160079081620001719190620007ca565b50806008819055506000600960006101000a81548160ff02191690836006811115620001a257620001a1620008b1565b5b0217905550505050505050505050620008e0565b6000604051905090565b600080fd5b600080fd5b600073ffffffffffffffffffffffffffffffffffffffff82169050919050565b6000620001f782620001ca565b9050919050565b60006200020b82620001ea565b9050919050565b6200021d81620001fe565b81146200022957600080fd5b50565b6000815190506200023d8162000212565b92915050565b6000819050919050565b620002588162000243565b81146200026457600080fd5b50565b60008151905062000278816200024d565b92915050565b6200028981620001ea565b81146200029557600080fd5b50565b600081519050620002a9816200027e565b92915050565b600080fd5b600080fd5b6000601f19601f8301169050919050565b7f4e487b7100000000000000000000000000000000000000000000000000000000600052604160045260246000fd5b6200030482620002b9565b810181811067ffffffffffffffff82111715620003265762000325620002ca565b5b80604052505050565b60006200033b620001b6565b9050620003498282620002f9565b919050565b600067ffffffffffffffff8211156200036c576200036b620002ca565b5b6200037782620002b9565b9050602081019050919050565b60005b83811015620003a457808201518184015260208101905062000387565b60008484015250505050565b6000620003c7620003c1846200034e565b6200032f565b905082815260208101848484011115620003e657620003e5620002b4565b5b620003f384828562000384565b509392505050565b600082601f830112620004135762000412620002af565b5b815162000425848260208601620003b0565b91505092915050565b600060ff82169050919050565b62000446816200042e565b81146200045257600080fd5b50565b60008151905062000466816200043b565b92915050565b60008060008060008060008060006101208a8c031215620004925762000491620001c0565b5b6000620004a28c828d016200022c565b9950506020620004b58c828d0162000267565b9850506040620004c88c828d0162000298565b9750506060620004db8c828d0162000298565b9650506080620004ee8c828d0162000298565b95505060a08a015167ffffffffffffffff811115620005125762000511620001c5565b5b620005208c828d01620003fb565b94505060c0620005338c828d0162000455565b93505060e08a015167ffffffffffffffff811115620005575762000556620001c5565b5b620005658c828d01620003fb565b925050610100620005798c828d0162000267565b9150509295985092959850929598565b600081519050919050565b7f4e487b7100000000000000000000000000000000000000000000000000000000600052602260045260246000fd5b60006002820490506001821680620005dc57607f821691505b602082108103620005f257620005f162000594565b5b50919050565b60008190508160005260206000209050919050565b60006020601f8301049050919050565b600082821b905092915050565b6000600883026200065c7fffffffffffffffffffffffffffffffffffffffffffffffffffffffffffffffff826200061d565b6200066886836200061d565b95508019841693508086168417925050509392505050565b6000819050919050565b6000620006ab620006a56200069f8462000243565b62000680565b62000243565b9050919050565b6000819050919050565b620006c7836200068a565b620006df620006d682620006b2565b8484546200062a565b825550505050565b600090565b620006f6620006e7565b62000703818484620006bc565b505050565b5b818110156200072b576200071f600082620006ec565b60018101905062000709565b5050565b601f8211156200077a576200074481620005f8565b6200074f846200060d565b810160208510156200075f578190505b620007776200076e856200060d565b83018262000708565b50505b505050565b600082821c905092915050565b60006200079f600019846008026200077f565b1980831691505092915050565b6000620007ba83836200078c565b9150826002028217905092915050565b620007d58262000589565b67ffffffffffffffff811115620007f157620007f0620002ca565b5b620007fd8254620005c3565b6200080a8282856200072f565b600060209050601f8311600181146200084257600084156200082d578287015190505b620008398582620007ac565b865550620008a9565b601f1984166200085286620005f8565b60005b828110156200087c5784890151825560018201915060208501945060208101905062000855565b868310156200089c578489015162000898601f8916826200078c565b8355505b6001600288020188555050505b505050505050565b7f4e487b7100000000000000000000000000000000000000000000000000000000600052602160045260246000fd5b61202080620008f06000396000f3fe6080604052600436106100f35760003560e01c8063516f279e1161008a578063aa8c217c11610059578063aa8c217c146102fc578063b6ee017514610327578063c06fad0614610350578063fe07a9271461037b576100f3565b8063516f279e1461025457806356fb40d71461027f5780637ee9e2d8146102aa57806399c49852146102d3576100f3565b806317fc45e2116100c657806317fc45e2146101a25780631e6e5263146101cd578063200d2ed2146101f65780634f2f129114610221576100f3565b80630a360990146100f85780630a48a89b14610123578063163de5e51461014e57806316bb7d9d14610179575b600080fd5b34801561010457600080fd5b5061010d610397565b60405161011a91906116c6565b60405180910390f35b34801561012f57600080fd5b506101386103bd565b60405161014591906116c6565b60405180910390f35b34801561015a57600080fd5b506101636103e3565b60405161017091906116fa565b60405180910390f35b34801561018557600080fd5b506101a0600480360381019061019b9190611746565b6103e9565b005b3480156101ae57600080fd5b506101b7610634565b6040516101c4919061178f565b60405180910390f35b3480156101d957600080fd5b506101f460048036038101906101ef9190611746565b610647565b005b34801561020257600080fd5b5061020b610892565b6040516102189190611821565b60405180910390f35b34801561022d57600080fd5b506102366108a5565b60405161024b999897969594939291906118cc565b60405180910390f35b34801561026057600080fd5b50610269610a81565b6040516102769190611967565b60405180910390f35b34801561028b57600080fd5b50610294610b0f565b6040516102a191906116c6565b60405180910390f35b3480156102b657600080fd5b506102d160048036038101906102cc9190611746565b610b35565b005b3480156102df57600080fd5b506102fa60048036038101906102f59190611746565b610d80565b005b34801561030857600080fd5b506103116110f0565b60405161031e91906116fa565b60405180910390f35b34801561033357600080fd5b5061034e60048036038101906103499190611746565b6110f6565b005b34801561035c57600080fd5b50610365611341565b6040516103729190611967565b60405180910390f35b61039560048036038101906103909190611746565b6113cf565b005b600260009054906101000a900473ffffffffffffffffffffffffffffffffffffffff1681565b600460009054906101000a900473ffffffffffffffffffffffffffffffffffffffff1681565b60015481565b80600260048111156103fe576103fd6117aa565b5b60008054906101000a900473ffffffffffffffffffffffffffffffffffffffff1673ffffffffffffffffffffffffffffffffffffffff166344276733836040518263ffffffff1660e01b815260040161045791906116c6565b602060405180830381865afa158015610474573d6000803e3d6000fd5b505050506040513d601f19601f8201168201806040525081019061049891906119b5565b60ff1660048111156104ad576104ac6117aa565b5b60048111156104bf576104be6117aa565b5b146104ff576040517f08c379a00000000000000000000000000000000000000000000000000000000081526004016104f690611a2e565b60405180910390fd5b8073ffffffffffffffffffffffffffffffffffffffff16600460009054906101000a900473ffffffffffffffffffffffffffffffffffffffff1673ffffffffffffffffffffffffffffffffffffffff161461058f576040517f08c379a000000000000000000000000000000000000000000000000000000000815260040161058690611ac0565b60405180910390fd5b600260068111156105a3576105a26117aa565b5b600960009054906101000a900460ff1660068111156105c5576105c46117aa565b5b14610605576040517f08c379a00000000000000000000000000000000000000000000000000000000081526004016105fc90611b2c565b60405180910390fd5b6003600960006101000a81548160ff0219169083600681111561062b5761062a6117aa565b5b02179055505050565b600660009054906101000a900460ff1681565b806001600481111561065c5761065b6117aa565b5b60008054906101000a900473ffffffffffffffffffffffffffffffffffffffff1673ffffffffffffffffffffffffffffffffffffffff166344276733836040518263ffffffff1660e01b81526004016106b591906116c6565b602060405180830381865afa1580156106d2573d6000803e3d6000fd5b505050506040513d601f19601f820116820180604052508101906106f691906119b5565b60ff16600481111561070b5761070a6117aa565b5b600481111561071d5761071c6117aa565b5b1461075d576040517f08c379a000000000000000000000000000000000000000000000000000000000815260040161075490611b98565b60405180910390fd5b8073ffffffffffffffffffffffffffffffffffffffff16600360009054906101000a900473ffffffffffffffffffffffffffffffffffffffff1673ffffffffffffffffffffffffffffffffffffffff16146107ed576040517f08c379a00000000000000000000000000000000000000000000000000000000081526004016107e490611c2a565b60405180910390fd5b60016006811115610801576108006117aa565b5b600960009054906101000a900460ff166006811115610823576108226117aa565b5b14610863576040517f08c379a000000000000000000000000000000000000000000000000000000000815260040161085a90611c96565b60405180910390fd5b6002600960006101000a81548160ff02191690836006811115610889576108886117aa565b5b02179055505050565b600960009054906101000a900460ff1681565b6000806000806060806000806000600154600260009054906101000a900473ffffffffffffffffffffffffffffffffffffffff16600360009054906101000a900473ffffffffffffffffffffffffffffffffffffffff16600460009054906101000a900473ffffffffffffffffffffffffffffffffffffffff1660056007600660009054906101000a900460ff16600854600960009054906101000a900460ff1684805461095290611ce5565b80601f016020809104026020016040519081016040528092919081815260200182805461097e90611ce5565b80156109cb5780601f106109a0576101008083540402835291602001916109cb565b820191906000526020600020905b8154815290600101906020018083116109ae57829003601f168201915b505050505094508380546109de90611ce5565b80601f0160208091040260200160405190810160405280929190818152602001828054610a0a90611ce5565b8015610a575780601f10610a2c57610100808354040283529160200191610a57565b820191906000526020600020905b815481529060010190602001808311610a3a57829003601f168201915b505050505093508260ff169250985098509850985098509850985098509850909192939495969798565b60058054610a8e90611ce5565b80601f0160208091040260200160405190810160405280929190818152602001828054610aba90611ce5565b8015610b075780601f10610adc57610100808354040283529160200191610b07565b820191906000526020600020905b815481529060010190602001808311610aea57829003601f168201915b505050505081565b600360009054906101000a900473ffffffffffffffffffffffffffffffffffffffff1681565b8060016004811115610b4a57610b496117aa565b5b60008054906101000a900473ffffffffffffffffffffffffffffffffffffffff1673ffffffffffffffffffffffffffffffffffffffff166344276733836040518263ffffffff1660e01b8152600401610ba391906116c6565b602060405180830381865afa158015610bc0573d6000803e3d6000fd5b505050506040513d601f19601f82011682018060405250810190610be491906119b5565b60ff166004811115610bf957610bf86117aa565b5b6004811115610c0b57610c0a6117aa565b5b14610c4b576040517f08c379a0000000000000000000000000000000000000000000000000000000008152600401610c4290611b98565b60405180910390fd5b8073ffffffffffffffffffffffffffffffffffffffff16600360009054906101000a900473ffffffffffffffffffffffffffffffffffffffff1673ffffffffffffffffffffffffffffffffffffffff1614610cdb576040517f08c379a0000000000000000000000000000000000000000000000000000000008152600401610cd290611c2a565b60405180910390fd5b60006006811115610cef57610cee6117aa565b5b600960009054906101000a900460ff166006811115610d1157610d106117aa565b5b14610d51576040517f08c379a0000000000000000000000000000000000000000000000000000000008152600401610d4890611d62565b60405180910390fd5b6001600960006101000a81548160ff02191690836006811115610d7757610d766117aa565b5b02179055505050565b8060036004811115610d9557610d946117aa565b5b60008054906101000a900473ffffffffffffffffffffffffffffffffffffffff1673ffffffffffffffffffffffffffffffffffffffff166344276733836040518263ffffffff1660e01b8152600401610dee91906116c6565b602060405180830381865afa158015610e0b573d6000803e3d6000fd5b505050506040513d601f19601f82011682018060405250810190610e2f91906119b5565b60ff166004811115610e4457610e436117aa565b5b6004811115610e5657610e556117aa565b5b14610e96576040517f08c379a0000000000000000000000000000000000000000000000000000000008152600401610e8d90611dce565b60405180910390fd5b8073ffffffffffffffffffffffffffffffffffffffff16600260009054906101000a900473ffffffffffffffffffffffffffffffffffffffff1673ffffffffffffffffffffffffffffffffffffffff1614610f26576040517f08c379a0000000000000000000000000000000000000000000000000000000008152600401610f1d90611e60565b60405180910390fd5b60006006811115610f3a57610f396117aa565b5b600960009054906101000a900460ff166006811115610f5c57610f5b6117aa565b5b1480610f9b575060016006811115610f7757610f766117aa565b5b600960009054906101000a900460ff166006811115610f9957610f986117aa565b5b145b80610fd9575060026006811115610fb557610fb46117aa565b5b600960009054906101000a900460ff166006811115610fd757610fd66117aa565b5b145b80611017575060036006811115610ff357610ff26117aa565b5b600960009054906101000a900460ff166006811115611015576110146117aa565b5b145b611056576040517f08c379a000000000000000000000000000000000000000000000000000000000815260040161104d90611ecc565b60405180910390fd5b600260009054906101000a900473ffffffffffffffffffffffffffffffffffffffff1673ffffffffffffffffffffffffffffffffffffffff166108fc6008549081150290604051600060405180830381858888f193505050501580156110c0573d6000803e3d6000fd5b506006600960006101000a81548160ff021916908360068111156110e7576110e66117aa565b5b02179055505050565b60085481565b806002600481111561110b5761110a6117aa565b5b60008054906101000a900473ffffffffffffffffffffffffffffffffffffffff1673ffffffffffffffffffffffffffffffffffffffff166344276733836040518263ffffffff1660e01b815260040161116491906116c6565b602060405180830381865afa158015611181573d6000803e3d6000fd5b505050506040513d601f19601f820116820180604052508101906111a591906119b5565b60ff1660048111156111ba576111b96117aa565b5b60048111156111cc576111cb6117aa565b5b1461120c576040517f08c379a000000000000000000000000000000000000000000000000000000000815260040161120390611a2e565b60405180910390fd5b8073ffffffffffffffffffffffffffffffffffffffff16600460009054906101000a900473ffffffffffffffffffffffffffffffffffffffff1673ffffffffffffffffffffffffffffffffffffffff161461129c576040517f08c379a000000000000000000000000000000000000000000000000000000000815260040161129390611ac0565b60405180910390fd5b600360068111156112b0576112af6117aa565b5b600960009054906101000a900460ff1660068111156112d2576112d16117aa565b5b14611312576040517f08c379a000000000000000000000000000000000000000000000000000000000815260040161130990611f38565b60405180910390fd5b6004600960006101000a81548160ff02191690836006811115611338576113376117aa565b5b02179055505050565b6007805461134e90611ce5565b80601f016020809104026020016040519081016040528092919081815260200182805461137a90611ce5565b80156113c75780601f1061139c576101008083540402835291602001916113c7565b820191906000526020600020905b8154815290600101906020018083116113aa57829003601f168201915b505050505081565b80600260048111156113e4576113e36117aa565b5b60008054906101000a900473ffffffffffffffffffffffffffffffffffffffff1673ffffffffffffffffffffffffffffffffffffffff166344276733836040518263ffffffff1660e01b815260040161143d91906116c6565b602060405180830381865afa15801561145a573d6000803e3d6000fd5b505050506040513d601f19601f8201168201806040525081019061147e91906119b5565b60ff166004811115611493576114926117aa565b5b60048111156114a5576114a46117aa565b5b146114e5576040517f08c379a00000000000000000000000000000000000000000000000000000000081526004016114dc90611a2e565b60405180910390fd5b8073ffffffffffffffffffffffffffffffffffffffff16600460009054906101000a900473ffffffffffffffffffffffffffffffffffffffff1673ffffffffffffffffffffffffffffffffffffffff1614611575576040517f08c379a000000000000000000000000000000000000000000000000000000000815260040161156c90611ac0565b60405180910390fd5b60046006811115611589576115886117aa565b5b600960009054906101000a900460ff1660068111156115ab576115aa6117aa565b5b146115eb576040517f08c379a00000000000000000000000000000000000000000000000000000000081526004016115e290611fca565b60405180910390fd5b600360009054906101000a900473ffffffffffffffffffffffffffffffffffffffff1673ffffffffffffffffffffffffffffffffffffffff166108fc6008549081150290604051600060405180830381858888f19350505050158015611655573d6000803e3d6000fd5b506005600960006101000a81548160ff0219169083600681111561167c5761167b6117aa565b5b02179055505050565b600073ffffffffffffffffffffffffffffffffffffffff82169050919050565b60006116b082611685565b9050919050565b6116c0816116a5565b82525050565b60006020820190506116db60008301846116b7565b92915050565b6000819050919050565b6116f4816116e1565b82525050565b600060208201905061170f60008301846116eb565b92915050565b600080fd5b611723816116a5565b811461172e57600080fd5b50565b6000813590506117408161171a565b92915050565b60006020828403121561175c5761175b611715565b5b600061176a84828501611731565b91505092915050565b600060ff82169050919050565b61178981611773565b82525050565b60006020820190506117a46000830184611780565b92915050565b7f4e487b7100000000000000000000000000000000000000000000000000000000600052602160045260246000fd5b600781106117ea576117e96117aa565b5b50565b60008190506117fb826117d9565b919050565b600061180b826117ed565b9050919050565b61181b81611800565b82525050565b60006020820190506118366000830184611812565b92915050565b600081519050919050565b600082825260208201905092915050565b60005b8381101561187657808201518184015260208101905061185b565b60008484015250505050565b6000601f19601f8301169050919050565b600061189e8261183c565b6118a88185611847565b93506118b8818560208601611858565b6118c181611882565b840191505092915050565b6000610120820190506118e2600083018c6116eb565b6118ef602083018b6116b7565b6118fc604083018a6116b7565b61190960608301896116b7565b818103608083015261191b8188611893565b905081810360a083015261192f8187611893565b905061193e60c08301866116eb565b61194b60e08301856116eb565b611959610100830184611812565b9a9950505050505050505050565b600060208201905081810360008301526119818184611893565b905092915050565b61199281611773565b811461199d57600080fd5b50565b6000815190506119af81611989565b92915050565b6000602082840312156119cb576119ca611715565b5b60006119d9848285016119a0565b91505092915050565b7f4f6e6c79207472616e73706f7274657220686173206163636573730000000000600082015250565b6000611a18601b83611847565b9150611a23826119e2565b602082019050919050565b60006020820190508181036000830152611a4781611a0b565b9050919050565b7f496e76616c6964207472616e73706f72746572206164647265737320666f722060008201527f74686973206f7264657200000000000000000000000000000000000000000000602082015250565b6000611aaa602a83611847565b9150611ab582611a4e565b604082019050919050565b60006020820190508181036000830152611ad981611a9d565b9050919050565b7f4f72646572206973206e6f7420696e207061636b6167696e6720737461746500600082015250565b6000611b16601f83611847565b9150611b2182611ae0565b602082019050919050565b60006020820190508181036000830152611b4581611b09565b9050919050565b7f4f6e6c792073656c6c6572206861732061636365737300000000000000000000600082015250565b6000611b82601683611847565b9150611b8d82611b4c565b602082019050919050565b60006020820190508181036000830152611bb181611b75565b9050919050565b7f496e76616c69642073656c6c6572206164647265737320666f7220746869732060008201527f6f72646572000000000000000000000000000000000000000000000000000000602082015250565b6000611c14602583611847565b9150611c1f82611bb8565b604082019050919050565b60006020820190508181036000830152611c4381611c07565b9050919050565b7f4f72646572206973206e6f7420696e20636f6e6669726d207374617465000000600082015250565b6000611c80601d83611847565b9150611c8b82611c4a565b602082019050919050565b60006020820190508181036000830152611caf81611c73565b9050919050565b7f4e487b7100000000000000000000000000000000000000000000000000000000600052602260045260246000fd5b60006002820490506001821680611cfd57607f821691505b602082108103611d1057611d0f611cb6565b5b50919050565b7f4f72646572206973206e6f7420696e20706c6163656420737461746500000000600082015250565b6000611d4c601c83611847565b9150611d5782611d16565b602082019050919050565b60006020820190508181036000830152611d7b81611d3f565b9050919050565b7f4f6e6c7920637573746f6d657220686173206163636573730000000000000000600082015250565b6000611db8601883611847565b9150611dc382611d82565b602082019050919050565b60006020820190508181036000830152611de781611dab565b9050919050565b7f496e76616c696420637573746f6d6572206164647265737320666f722074686960008201527f73206f7264657200000000000000000000000000000000000000000000000000602082015250565b6000611e4a602783611847565b9150611e5582611dee565b604082019050919050565b60006020820190508181036000830152611e7981611e3d565b9050919050565b7f4f726465722063616e6e6f742062652063616e63656c00000000000000000000600082015250565b6000611eb6601683611847565b9150611ec182611e80565b602082019050919050565b60006020820190508181036000830152611ee581611ea9565b9050919050565b7f4f72646572206973206e6f7420696e2073686970706564207374617465000000600082015250565b6000611f22601d83611847565b9150611f2d82611eec565b602082019050919050565b60006020820190508181036000830152611f5181611f15565b9050919050565b7f4f72646572206973206e6f7420696e206f757420666f722064656c697665727960008201527f2073746174650000000000000000000000000000000000000000000000000000602082015250565b6000611fb4602683611847565b9150611fbf82611f58565b604082019050919050565b60006020820190508181036000830152611fe381611fa7565b905091905056fea26469706673582212203aebac960dce9d682e302ad91879eef554748c4ff0f37c2bfaf3badd3a07829b64736f6c63430008130033a2646970667358221220bfac63fc0f129c074d78800a2ff6625b2fc7be9580710584c46f45bc28f31e4364736f6c63430008130033",
  "linkReferences": {},
  "deployedLinkReferences": {}
}