{
  "_format": "hh-sol-artifact-1",
  "contractName": "Order",
  "sourceName": "contracts/Order.sol",
  "abi": [
    {
      "inputs": [
        {
          "internalType": "contract Admin",
          "name": "adminAddress",
          "type": "address"
        },
        {
          "internalType": "uint256",
          "name": "_orderId",
          "type": "uint256"
        },
        {
          "internalType": "address",
          "name": "_customer_ethAddress",
          "type": "address"
        },
        {
          "internalType": "address",
          "name": "_seller_ethAddress",
          "type": "address"
        },
        {
          "internalType": "address",
          "name": "_transporter_ethAddress",
          "type": "address"
        },
        {
          "internalType": "string",
          "name": "_location",
          "type": "string"
        },
        {
          "internalType": "uint8",
          "name": "_quantity",
          "type": "uint8"
        },
        {
          "internalType": "string",
          "name": "_items",
          "type": "string"
        },
        {
          "internalType": "uint256",
          "name": "_amount",
          "type": "uint256"
        }
      ],
      "stateMutability": "payable",
      "type": "constructor"
    },
    {
      "inputs": [],
      "name": "amount",
      "outputs": [
        {
          "internalType": "uint256",
          "name": "",
          "type": "uint256"
        }
      ],
      "stateMutability": "view",
      "type": "function"
    },
    {
      "inputs": [
        {
          "internalType": "address",
          "name": "ethAddress",
          "type": "address"
        }
      ],
      "name": "cancelOrder",
      "outputs": [],
      "stateMutability": "nonpayable",
      "type": "function"
    },
    {
      "inputs": [
        {
          "internalType": "address",
          "name": "ethAddress",
          "type": "address"
        }
      ],
      "name": "confirmOrder",
      "outputs": [],
      "stateMutability": "nonpayable",
      "type": "function"
    },
    {
      "inputs": [],
      "name": "customer_ethAddress",
      "outputs": [
        {
          "internalType": "address",
          "name": "",
          "type": "address"
        }
      ],
      "stateMutability": "view",
      "type": "function"
    },
    {
      "inputs": [
        {
          "internalType": "address",
          "name": "ethAddress",
          "type": "address"
        }
      ],
      "name": "deliverdOrder",
      "outputs": [],
      "stateMutability": "payable",
      "type": "function"
    },
    {
      "inputs": [],
      "name": "getOrderDetail",
      "outputs": [
        {
          "internalType": "uint256",
          "name": "_orderId",
          "type": "uint256"
        },
        {
          "internalType": "address",
          "name": "_customer_ethAddress",
          "type": "address"
        },
        {
          "internalType": "address",
          "name": "_seller_ethAddress",
          "type": "address"
        },
        {
          "internalType": "address",
          "name": "_transporter_ethAddress",
          "type": "address"
        },
        {
          "internalType": "string",
          "name": "_location",
          "type": "string"
        },
        {
          "internalType": "string",
          "name": "_items",
          "type": "string"
        },
        {
          "internalType": "uint256",
          "name": "_quantity",
          "type": "uint256"
        },
        {
          "internalType": "uint256",
          "name": "_amount",
          "type": "uint256"
        },
        {
          "internalType": "enum Order.OrderStatus",
          "name": "_status",
          "type": "uint8"
        }
      ],
      "stateMutability": "view",
      "type": "function"
    },
    {
      "inputs": [],
      "name": "items",
      "outputs": [
        {
          "internalType": "string",
          "name": "",
          "type": "string"
        }
      ],
      "stateMutability": "view",
      "type": "function"
    },
    {
      "inputs": [],
      "name": "location",
      "outputs": [
        {
          "internalType": "string",
          "name": "",
          "type": "string"
        }
      ],
      "stateMutability": "view",
      "type": "function"
    },
    {
      "inputs": [],
      "name": "orderId",
      "outputs": [
        {
          "internalType": "uint256",
          "name": "",
          "type": "uint256"
        }
      ],
      "stateMutability": "view",
      "type": "function"
    },
    {
      "inputs": [
        {
          "internalType": "address",
          "name": "ethAddress",
          "type": "address"
        }
      ],
      "name": "outForDeliveryOrder",
      "outputs": [],
      "stateMutability": "nonpayable",
      "type": "function"
    },
    {
      "inputs": [
        {
          "internalType": "address",
          "name": "ethAddress",
          "type": "address"
        }
      ],
      "name": "packagingOrder",
      "outputs": [],
      "stateMutability": "nonpayable",
      "type": "function"
    },
    {
      "inputs": [],
      "name": "quantity",
      "outputs": [
        {
          "internalType": "uint8",
          "name": "",
          "type": "uint8"
        }
      ],
      "stateMutability": "view",
      "type": "function"
    },
    {
      "inputs": [],
      "name": "seller_ethAddress",
      "outputs": [
        {
          "internalType": "address",
          "name": "",
          "type": "address"
        }
      ],
      "stateMutability": "view",
      "type": "function"
    },
    {
      "inputs": [
        {
          "internalType": "address",
          "name": "ethAddress",
          "type": "address"
        }
      ],
      "name": "shippingOrder",
      "outputs": [],
      "stateMutability": "nonpayable",
      "type": "function"
    },
    {
      "inputs": [],
      "name": "status",
      "outputs": [
        {
          "internalType": "enum Order.OrderStatus",
          "name": "",
          "type": "uint8"
        }
      ],
      "stateMutability": "view",
      "type": "function"
    },
    {
      "inputs": [],
      "name": "transporter_ethAddress",
      "outputs": [
        {
          "internalType": "address",
          "name": "",
          "type": "address"
        }
      ],
      "stateMutability": "view",
      "type": "function"
    }
  ],
  "bytecode": "0x6080604052604051620029103803806200291083398181016040528101906200002991906200046c565b886000806101000a81548173ffffffffffffffffffffffffffffffffffffffff021916908373ffffffffffffffffffffffffffffffffffffffff1602179055508760018190555086600260006101000a81548173ffffffffffffffffffffffffffffffffffffffff021916908373ffffffffffffffffffffffffffffffffffffffff16021790555085600360006101000a81548173ffffffffffffffffffffffffffffffffffffffff021916908373ffffffffffffffffffffffffffffffffffffffff16021790555084600460006101000a81548173ffffffffffffffffffffffffffffffffffffffff021916908373ffffffffffffffffffffffffffffffffffffffff1602179055508360059081620001449190620007ca565b5082600660006101000a81548160ff021916908360ff1602179055508160079081620001719190620007ca565b50806008819055506000600960006101000a81548160ff02191690836006811115620001a257620001a1620008b1565b5b0217905550505050505050505050620008e0565b6000604051905090565b600080fd5b600080fd5b600073ffffffffffffffffffffffffffffffffffffffff82169050919050565b6000620001f782620001ca565b9050919050565b60006200020b82620001ea565b9050919050565b6200021d81620001fe565b81146200022957600080fd5b50565b6000815190506200023d8162000212565b92915050565b6000819050919050565b620002588162000243565b81146200026457600080fd5b50565b60008151905062000278816200024d565b92915050565b6200028981620001ea565b81146200029557600080fd5b50565b600081519050620002a9816200027e565b92915050565b600080fd5b600080fd5b6000601f19601f8301169050919050565b7f4e487b7100000000000000000000000000000000000000000000000000000000600052604160045260246000fd5b6200030482620002b9565b810181811067ffffffffffffffff82111715620003265762000325620002ca565b5b80604052505050565b60006200033b620001b6565b9050620003498282620002f9565b919050565b600067ffffffffffffffff8211156200036c576200036b620002ca565b5b6200037782620002b9565b9050602081019050919050565b60005b83811015620003a457808201518184015260208101905062000387565b60008484015250505050565b6000620003c7620003c1846200034e565b6200032f565b905082815260208101848484011115620003e657620003e5620002b4565b5b620003f384828562000384565b509392505050565b600082601f830112620004135762000412620002af565b5b815162000425848260208601620003b0565b91505092915050565b600060ff82169050919050565b62000446816200042e565b81146200045257600080fd5b50565b60008151905062000466816200043b565b92915050565b60008060008060008060008060006101208a8c031215620004925762000491620001c0565b5b6000620004a28c828d016200022c565b9950506020620004b58c828d0162000267565b9850506040620004c88c828d0162000298565b9750506060620004db8c828d0162000298565b9650506080620004ee8c828d0162000298565b95505060a08a015167ffffffffffffffff811115620005125762000511620001c5565b5b620005208c828d01620003fb565b94505060c0620005338c828d0162000455565b93505060e08a015167ffffffffffffffff811115620005575762000556620001c5565b5b620005658c828d01620003fb565b925050610100620005798c828d0162000267565b9150509295985092959850929598565b600081519050919050565b7f4e487b7100000000000000000000000000000000000000000000000000000000600052602260045260246000fd5b60006002820490506001821680620005dc57607f821691505b602082108103620005f257620005f162000594565b5b50919050565b60008190508160005260206000209050919050565b60006020601f8301049050919050565b600082821b905092915050565b6000600883026200065c7fffffffffffffffffffffffffffffffffffffffffffffffffffffffffffffffff826200061d565b6200066886836200061d565b95508019841693508086168417925050509392505050565b6000819050919050565b6000620006ab620006a56200069f8462000243565b62000680565b62000243565b9050919050565b6000819050919050565b620006c7836200068a565b620006df620006d682620006b2565b8484546200062a565b825550505050565b600090565b620006f6620006e7565b62000703818484620006bc565b505050565b5b818110156200072b576200071f600082620006ec565b60018101905062000709565b5050565b601f8211156200077a576200074481620005f8565b6200074f846200060d565b810160208510156200075f578190505b620007776200076e856200060d565b83018262000708565b50505b505050565b600082821c905092915050565b60006200079f600019846008026200077f565b1980831691505092915050565b6000620007ba83836200078c565b9150826002028217905092915050565b620007d58262000589565b67ffffffffffffffff811115620007f157620007f0620002ca565b5b620007fd8254620005c3565b6200080a8282856200072f565b600060209050601f8311600181146200084257600084156200082d578287015190505b620008398582620007ac565b865550620008a9565b601f1984166200085286620005f8565b60005b828110156200087c5784890151825560018201915060208501945060208101905062000855565b868310156200089c578489015162000898601f8916826200078c565b8355505b6001600288020188555050505b505050505050565b7f4e487b7100000000000000000000000000000000000000000000000000000000600052602160045260246000fd5b61202080620008f06000396000f3fe6080604052600436106100f35760003560e01c8063516f279e1161008a578063aa8c217c11610059578063aa8c217c146102fc578063b6ee017514610327578063c06fad0614610350578063fe07a9271461037b576100f3565b8063516f279e1461025457806356fb40d71461027f5780637ee9e2d8146102aa57806399c49852146102d3576100f3565b806317fc45e2116100c657806317fc45e2146101a25780631e6e5263146101cd578063200d2ed2146101f65780634f2f129114610221576100f3565b80630a360990146100f85780630a48a89b14610123578063163de5e51461014e57806316bb7d9d14610179575b600080fd5b34801561010457600080fd5b5061010d610397565b60405161011a91906116c6565b60405180910390f35b34801561012f57600080fd5b506101386103bd565b60405161014591906116c6565b60405180910390f35b34801561015a57600080fd5b506101636103e3565b60405161017091906116fa565b60405180910390f35b34801561018557600080fd5b506101a0600480360381019061019b9190611746565b6103e9565b005b3480156101ae57600080fd5b506101b7610634565b6040516101c4919061178f565b60405180910390f35b3480156101d957600080fd5b506101f460048036038101906101ef9190611746565b610647565b005b34801561020257600080fd5b5061020b610892565b6040516102189190611821565b60405180910390f35b34801561022d57600080fd5b506102366108a5565b60405161024b999897969594939291906118cc565b60405180910390f35b34801561026057600080fd5b50610269610a81565b6040516102769190611967565b60405180910390f35b34801561028b57600080fd5b50610294610b0f565b6040516102a191906116c6565b60405180910390f35b3480156102b657600080fd5b506102d160048036038101906102cc9190611746565b610b35565b005b3480156102df57600080fd5b506102fa60048036038101906102f59190611746565b610d80565b005b34801561030857600080fd5b506103116110f0565b60405161031e91906116fa565b60405180910390f35b34801561033357600080fd5b5061034e60048036038101906103499190611746565b6110f6565b005b34801561035c57600080fd5b50610365611341565b6040516103729190611967565b60405180910390f35b61039560048036038101906103909190611746565b6113cf565b005b600260009054906101000a900473ffffffffffffffffffffffffffffffffffffffff1681565b600460009054906101000a900473ffffffffffffffffffffffffffffffffffffffff1681565b60015481565b80600260048111156103fe576103fd6117aa565b5b60008054906101000a900473ffffffffffffffffffffffffffffffffffffffff1673ffffffffffffffffffffffffffffffffffffffff166344276733836040518263ffffffff1660e01b815260040161045791906116c6565b602060405180830381865afa158015610474573d6000803e3d6000fd5b505050506040513d601f19601f8201168201806040525081019061049891906119b5565b60ff1660048111156104ad576104ac6117aa565b5b60048111156104bf576104be6117aa565b5b146104ff576040517f08c379a00000000000000000000000000000000000000000000000000000000081526004016104f690611a2e565b60405180910390fd5b8073ffffffffffffffffffffffffffffffffffffffff16600460009054906101000a900473ffffffffffffffffffffffffffffffffffffffff1673ffffffffffffffffffffffffffffffffffffffff161461058f576040517f08c379a000000000000000000000000000000000000000000000000000000000815260040161058690611ac0565b60405180910390fd5b600260068111156105a3576105a26117aa565b5b600960009054906101000a900460ff1660068111156105c5576105c46117aa565b5b14610605576040517f08c379a00000000000000000000000000000000000000000000000000000000081526004016105fc90611b2c565b60405180910390fd5b6003600960006101000a81548160ff0219169083600681111561062b5761062a6117aa565b5b02179055505050565b600660009054906101000a900460ff1681565b806001600481111561065c5761065b6117aa565b5b60008054906101000a900473ffffffffffffffffffffffffffffffffffffffff1673ffffffffffffffffffffffffffffffffffffffff166344276733836040518263ffffffff1660e01b81526004016106b591906116c6565b602060405180830381865afa1580156106d2573d6000803e3d6000fd5b505050506040513d601f19601f820116820180604052508101906106f691906119b5565b60ff16600481111561070b5761070a6117aa565b5b600481111561071d5761071c6117aa565b5b1461075d576040517f08c379a000000000000000000000000000000000000000000000000000000000815260040161075490611b98565b60405180910390fd5b8073ffffffffffffffffffffffffffffffffffffffff16600360009054906101000a900473ffffffffffffffffffffffffffffffffffffffff1673ffffffffffffffffffffffffffffffffffffffff16146107ed576040517f08c379a00000000000000000000000000000000000000000000000000000000081526004016107e490611c2a565b60405180910390fd5b60016006811115610801576108006117aa565b5b600960009054906101000a900460ff166006811115610823576108226117aa565b5b14610863576040517f08c379a000000000000000000000000000000000000000000000000000000000815260040161085a90611c96565b60405180910390fd5b6002600960006101000a81548160ff02191690836006811115610889576108886117aa565b5b02179055505050565b600960009054906101000a900460ff1681565b6000806000806060806000806000600154600260009054906101000a900473ffffffffffffffffffffffffffffffffffffffff16600360009054906101000a900473ffffffffffffffffffffffffffffffffffffffff16600460009054906101000a900473ffffffffffffffffffffffffffffffffffffffff1660056007600660009054906101000a900460ff16600854600960009054906101000a900460ff1684805461095290611ce5565b80601f016020809104026020016040519081016040528092919081815260200182805461097e90611ce5565b80156109cb5780601f106109a0576101008083540402835291602001916109cb565b820191906000526020600020905b8154815290600101906020018083116109ae57829003601f168201915b505050505094508380546109de90611ce5565b80601f0160208091040260200160405190810160405280929190818152602001828054610a0a90611ce5565b8015610a575780601f10610a2c57610100808354040283529160200191610a57565b820191906000526020600020905b815481529060010190602001808311610a3a57829003601f168201915b505050505093508260ff169250985098509850985098509850985098509850909192939495969798565b60058054610a8e90611ce5565b80601f0160208091040260200160405190810160405280929190818152602001828054610aba90611ce5565b8015610b075780601f10610adc57610100808354040283529160200191610b07565b820191906000526020600020905b815481529060010190602001808311610aea57829003601f168201915b505050505081565b600360009054906101000a900473ffffffffffffffffffffffffffffffffffffffff1681565b8060016004811115610b4a57610b496117aa565b5b60008054906101000a900473ffffffffffffffffffffffffffffffffffffffff1673ffffffffffffffffffffffffffffffffffffffff166344276733836040518263ffffffff1660e01b8152600401610ba391906116c6565b602060405180830381865afa158015610bc0573d6000803e3d6000fd5b505050506040513d601f19601f82011682018060405250810190610be491906119b5565b60ff166004811115610bf957610bf86117aa565b5b6004811115610c0b57610c0a6117aa565b5b14610c4b576040517f08c379a0000000000000000000000000000000000000000000000000000000008152600401610c4290611b98565b60405180910390fd5b8073ffffffffffffffffffffffffffffffffffffffff16600360009054906101000a900473ffffffffffffffffffffffffffffffffffffffff1673ffffffffffffffffffffffffffffffffffffffff1614610cdb576040517f08c379a0000000000000000000000000000000000000000000000000000000008152600401610cd290611c2a565b60405180910390fd5b60006006811115610cef57610cee6117aa565b5b600960009054906101000a900460ff166006811115610d1157610d106117aa565b5b14610d51576040517f08c379a0000000000000000000000000000000000000000000000000000000008152600401610d4890611d62565b60405180910390fd5b6001600960006101000a81548160ff02191690836006811115610d7757610d766117aa565b5b02179055505050565b8060036004811115610d9557610d946117aa565b5b60008054906101000a900473ffffffffffffffffffffffffffffffffffffffff1673ffffffffffffffffffffffffffffffffffffffff166344276733836040518263ffffffff1660e01b8152600401610dee91906116c6565b602060405180830381865afa158015610e0b573d6000803e3d6000fd5b505050506040513d601f19601f82011682018060405250810190610e2f91906119b5565b60ff166004811115610e4457610e436117aa565b5b6004811115610e5657610e556117aa565b5b14610e96576040517f08c379a0000000000000000000000000000000000000000000000000000000008152600401610e8d90611dce565b60405180910390fd5b8073ffffffffffffffffffffffffffffffffffffffff16600260009054906101000a900473ffffffffffffffffffffffffffffffffffffffff1673ffffffffffffffffffffffffffffffffffffffff1614610f26576040517f08c379a0000000000000000000000000000000000000000000000000000000008152600401610f1d90611e60565b60405180910390fd5b60006006811115610f3a57610f396117aa565b5b600960009054906101000a900460ff166006811115610f5c57610f5b6117aa565b5b1480610f9b575060016006811115610f7757610f766117aa565b5b600960009054906101000a900460ff166006811115610f9957610f986117aa565b5b145b80610fd9575060026006811115610fb557610fb46117aa565b5b600960009054906101000a900460ff166006811115610fd757610fd66117aa565b5b145b80611017575060036006811115610ff357610ff26117aa565b5b600960009054906101000a900460ff166006811115611015576110146117aa565b5b145b611056576040517f08c379a000000000000000000000000000000000000000000000000000000000815260040161104d90611ecc565b60405180910390fd5b600260009054906101000a900473ffffffffffffffffffffffffffffffffffffffff1673ffffffffffffffffffffffffffffffffffffffff166108fc6008549081150290604051600060405180830381858888f193505050501580156110c0573d6000803e3d6000fd5b506006600960006101000a81548160ff021916908360068111156110e7576110e66117aa565b5b02179055505050565b60085481565b806002600481111561110b5761110a6117aa565b5b60008054906101000a900473ffffffffffffffffffffffffffffffffffffffff1673ffffffffffffffffffffffffffffffffffffffff166344276733836040518263ffffffff1660e01b815260040161116491906116c6565b602060405180830381865afa158015611181573d6000803e3d6000fd5b505050506040513d601f19601f820116820180604052508101906111a591906119b5565b60ff1660048111156111ba576111b96117aa565b5b60048111156111cc576111cb6117aa565b5b1461120c576040517f08c379a000000000000000000000000000000000000000000000000000000000815260040161120390611a2e565b60405180910390fd5b8073ffffffffffffffffffffffffffffffffffffffff16600460009054906101000a900473ffffffffffffffffffffffffffffffffffffffff1673ffffffffffffffffffffffffffffffffffffffff161461129c576040517f08c379a000000000000000000000000000000000000000000000000000000000815260040161129390611ac0565b60405180910390fd5b600360068111156112b0576112af6117aa565b5b600960009054906101000a900460ff1660068111156112d2576112d16117aa565b5b14611312576040517f08c379a000000000000000000000000000000000000000000000000000000000815260040161130990611f38565b60405180910390fd5b6004600960006101000a81548160ff02191690836006811115611338576113376117aa565b5b02179055505050565b6007805461134e90611ce5565b80601f016020809104026020016040519081016040528092919081815260200182805461137a90611ce5565b80156113c75780601f1061139c576101008083540402835291602001916113c7565b820191906000526020600020905b8154815290600101906020018083116113aa57829003601f168201915b505050505081565b80600260048111156113e4576113e36117aa565b5b60008054906101000a900473ffffffffffffffffffffffffffffffffffffffff1673ffffffffffffffffffffffffffffffffffffffff166344276733836040518263ffffffff1660e01b815260040161143d91906116c6565b602060405180830381865afa15801561145a573d6000803e3d6000fd5b505050506040513d601f19601f8201168201806040525081019061147e91906119b5565b60ff166004811115611493576114926117aa565b5b60048111156114a5576114a46117aa565b5b146114e5576040517f08c379a00000000000000000000000000000000000000000000000000000000081526004016114dc90611a2e565b60405180910390fd5b8073ffffffffffffffffffffffffffffffffffffffff16600460009054906101000a900473ffffffffffffffffffffffffffffffffffffffff1673ffffffffffffffffffffffffffffffffffffffff1614611575576040517f08c379a000000000000000000000000000000000000000000000000000000000815260040161156c90611ac0565b60405180910390fd5b60046006811115611589576115886117aa565b5b600960009054906101000a900460ff1660068111156115ab576115aa6117aa565b5b146115eb576040517f08c379a00000000000000000000000000000000000000000000000000000000081526004016115e290611fca565b60405180910390fd5b600360009054906101000a900473ffffffffffffffffffffffffffffffffffffffff1673ffffffffffffffffffffffffffffffffffffffff166108fc6008549081150290604051600060405180830381858888f19350505050158015611655573d6000803e3d6000fd5b506005600960006101000a81548160ff0219169083600681111561167c5761167b6117aa565b5b02179055505050565b600073ffffffffffffffffffffffffffffffffffffffff82169050919050565b60006116b082611685565b9050919050565b6116c0816116a5565b82525050565b60006020820190506116db60008301846116b7565b92915050565b6000819050919050565b6116f4816116e1565b82525050565b600060208201905061170f60008301846116eb565b92915050565b600080fd5b611723816116a5565b811461172e57600080fd5b50565b6000813590506117408161171a565b92915050565b60006020828403121561175c5761175b611715565b5b600061176a84828501611731565b91505092915050565b600060ff82169050919050565b61178981611773565b82525050565b60006020820190506117a46000830184611780565b92915050565b7f4e487b7100000000000000000000000000000000000000000000000000000000600052602160045260246000fd5b600781106117ea576117e96117aa565b5b50565b60008190506117fb826117d9565b919050565b600061180b826117ed565b9050919050565b61181b81611800565b82525050565b60006020820190506118366000830184611812565b92915050565b600081519050919050565b600082825260208201905092915050565b60005b8381101561187657808201518184015260208101905061185b565b60008484015250505050565b6000601f19601f8301169050919050565b600061189e8261183c565b6118a88185611847565b93506118b8818560208601611858565b6118c181611882565b840191505092915050565b6000610120820190506118e2600083018c6116eb565b6118ef602083018b6116b7565b6118fc604083018a6116b7565b61190960608301896116b7565b818103608083015261191b8188611893565b905081810360a083015261192f8187611893565b905061193e60c08301866116eb565b61194b60e08301856116eb565b611959610100830184611812565b9a9950505050505050505050565b600060208201905081810360008301526119818184611893565b905092915050565b61199281611773565b811461199d57600080fd5b50565b6000815190506119af81611989565b92915050565b6000602082840312156119cb576119ca611715565b5b60006119d9848285016119a0565b91505092915050565b7f4f6e6c79207472616e73706f7274657220686173206163636573730000000000600082015250565b6000611a18601b83611847565b9150611a23826119e2565b602082019050919050565b60006020820190508181036000830152611a4781611a0b565b9050919050565b7f496e76616c6964207472616e73706f72746572206164647265737320666f722060008201527f74686973206f7264657200000000000000000000000000000000000000000000602082015250565b6000611aaa602a83611847565b9150611ab582611a4e565b604082019050919050565b60006020820190508181036000830152611ad981611a9d565b9050919050565b7f4f72646572206973206e6f7420696e207061636b6167696e6720737461746500600082015250565b6000611b16601f83611847565b9150611b2182611ae0565b602082019050919050565b60006020820190508181036000830152611b4581611b09565b9050919050565b7f4f6e6c792073656c6c6572206861732061636365737300000000000000000000600082015250565b6000611b82601683611847565b9150611b8d82611b4c565b602082019050919050565b60006020820190508181036000830152611bb181611b75565b9050919050565b7f496e76616c69642073656c6c6572206164647265737320666f7220746869732060008201527f6f72646572000000000000000000000000000000000000000000000000000000602082015250565b6000611c14602583611847565b9150611c1f82611bb8565b604082019050919050565b60006020820190508181036000830152611c4381611c07565b9050919050565b7f4f72646572206973206e6f7420696e20636f6e6669726d207374617465000000600082015250565b6000611c80601d83611847565b9150611c8b82611c4a565b602082019050919050565b60006020820190508181036000830152611caf81611c73565b9050919050565b7f4e487b7100000000000000000000000000000000000000000000000000000000600052602260045260246000fd5b60006002820490506001821680611cfd57607f821691505b602082108103611d1057611d0f611cb6565b5b50919050565b7f4f72646572206973206e6f7420696e20706c6163656420737461746500000000600082015250565b6000611d4c601c83611847565b9150611d5782611d16565b602082019050919050565b60006020820190508181036000830152611d7b81611d3f565b9050919050565b7f4f6e6c7920637573746f6d657220686173206163636573730000000000000000600082015250565b6000611db8601883611847565b9150611dc382611d82565b602082019050919050565b60006020820190508181036000830152611de781611dab565b9050919050565b7f496e76616c696420637573746f6d6572206164647265737320666f722074686960008201527f73206f7264657200000000000000000000000000000000000000000000000000602082015250565b6000611e4a602783611847565b9150611e5582611dee565b604082019050919050565b60006020820190508181036000830152611e7981611e3d565b9050919050565b7f4f726465722063616e6e6f742062652063616e63656c00000000000000000000600082015250565b6000611eb6601683611847565b9150611ec182611e80565b602082019050919050565b60006020820190508181036000830152611ee581611ea9565b9050919050565b7f4f72646572206973206e6f7420696e2073686970706564207374617465000000600082015250565b6000611f22601d83611847565b9150611f2d82611eec565b602082019050919050565b60006020820190508181036000830152611f5181611f15565b9050919050565b7f4f72646572206973206e6f7420696e206f757420666f722064656c697665727960008201527f2073746174650000000000000000000000000000000000000000000000000000602082015250565b6000611fb4602683611847565b9150611fbf82611f58565b604082019050919050565b60006020820190508181036000830152611fe381611fa7565b905091905056fea26469706673582212203aebac960dce9d682e302ad91879eef554748c4ff0f37c2bfaf3badd3a07829b64736f6c63430008130033",
  "linkReferences": {},
  "deployedLinkReferences": {}
}