{
  "_format": "hh-sol-artifact-1",
  "contractName": "Seller",
  "sourceName": "contracts/Seller.sol",
  "abi": [
    {
      "inputs": [
        {
          "internalType": "contract Admin",
          "name": "adminAddress",
          "type": "address"
        }
      ],
      "stateMutability": "nonpayable",
      "type": "constructor"
    },
    {
      "inputs": [
        {
          "internalType": "contract Order",
          "name": "orderAddress",
          "type": "address"
        }
      ],
      "name": "confirmOrder",
      "outputs": [],
      "stateMutability": "nonpayable",
      "type": "function"
    },
    {
      "inputs": [],
      "name": "getAllOrders",
      "outputs": [
        {
          "internalType": "address[]",
          "name": "",
          "type": "address[]"
        }
      ],
      "stateMutability": "view",
      "type": "function"
    },
    {
      "inputs": [
        {
          "internalType": "uint256",
          "name": "index",
          "type": "uint256"
        }
      ],
      "name": "getOrderByIndex",
      "outputs": [
        {
          "internalType": "address",
          "name": "",
          "type": "address"
        }
      ],
      "stateMutability": "view",
      "type": "function"
    },
    {
      "inputs": [
        {
          "internalType": "address",
          "name": "orderAddress",
          "type": "address"
        }
      ],
      "name": "getOrderStatus",
      "outputs": [
        {
          "internalType": "enum Order.OrderStatus",
          "name": "",
          "type": "uint8"
        }
      ],
      "stateMutability": "view",
      "type": "function"
    },
    {
      "inputs": [
        {
          "internalType": "address",
          "name": "",
          "type": "address"
        },
        {
          "internalType": "uint256",
          "name": "",
          "type": "uint256"
        }
      ],
      "name": "orders",
      "outputs": [
        {
          "internalType": "address",
          "name": "",
          "type": "address"
        }
      ],
      "stateMutability": "view",
      "type": "function"
    },
    {
      "inputs": [
        {
          "internalType": "contract Order",
          "name": "orderAddress",
          "type": "address"
        }
      ],
      "name": "packagingOrder",
      "outputs": [],
      "stateMutability": "nonpayable",
      "type": "function"
    },
    {
      "inputs": [
        {
          "internalType": "address",
          "name": "seller_ethAddress",
          "type": "address"
        },
        {
          "internalType": "address",
          "name": "orderAddress",
          "type": "address"
        }
      ],
      "name": "setNewOrder",
      "outputs": [],
      "stateMutability": "nonpayable",
      "type": "function"
    }
  ],
  "bytecode": "0x60806040523480156200001157600080fd5b5060405162001026380380620010268339818101604052810190620000379190620000fc565b806000806101000a81548173ffffffffffffffffffffffffffffffffffffffff021916908373ffffffffffffffffffffffffffffffffffffffff160217905550506200012e565b600080fd5b600073ffffffffffffffffffffffffffffffffffffffff82169050919050565b6000620000b08262000083565b9050919050565b6000620000c482620000a3565b9050919050565b620000d681620000b7565b8114620000e257600080fd5b50565b600081519050620000f681620000cb565b92915050565b6000602082840312156200011557620001146200007e565b5b60006200012584828501620000e5565b91505092915050565b610ee8806200013e6000396000f3fe608060405234801561001057600080fd5b506004361061007d5760003560e01c8063793b8c6d1161005b578063793b8c6d146100ea5780637bea0d1c1461011a5780637ee9e2d814610138578063dabe8a71146101545761007d565b8063191ad8a1146100825780631e6e52631461009e5780636f9d75cd146100ba575b600080fd5b61009c60048036038101906100979190610963565b610184565b005b6100b860048036038101906100b391906109e1565b610228565b005b6100d460048036038101906100cf9190610a0e565b610489565b6040516100e19190610ab2565b60405180910390f35b61010460048036038101906100ff9190610b03565b610501565b6040516101119190610b52565b60405180910390f35b61012261054f565b60405161012f9190610c2b565b60405180910390f35b610152600480360381019061014d91906109e1565b61061a565b005b61016e60048036038101906101699190610c4d565b61087b565b60405161017b9190610b52565b60405180910390f35b600260008373ffffffffffffffffffffffffffffffffffffffff1673ffffffffffffffffffffffffffffffffffffffff168152602001908152602001600020819080600181540180825580915050600190039060005260206000200160009091909190916101000a81548173ffffffffffffffffffffffffffffffffffffffff021916908373ffffffffffffffffffffffffffffffffffffffff1602179055505050565b6001600481111561023c5761023b610a3b565b5b60008054906101000a900473ffffffffffffffffffffffffffffffffffffffff1673ffffffffffffffffffffffffffffffffffffffff166344276733336040518263ffffffff1660e01b81526004016102959190610b52565b602060405180830381865afa1580156102b2573d6000803e3d6000fd5b505050506040513d601f19601f820116820180604052508101906102d69190610cb3565b60ff1660048111156102eb576102ea610a3b565b5b60048111156102fd576102fc610a3b565b5b1461033d576040517f08c379a000000000000000000000000000000000000000000000000000000000815260040161033490610d3d565b60405180910390fd5b803373ffffffffffffffffffffffffffffffffffffffff168173ffffffffffffffffffffffffffffffffffffffff166356fb40d76040518163ffffffff1660e01b8152600401602060405180830381865afa1580156103a0573d6000803e3d6000fd5b505050506040513d601f19601f820116820180604052508101906103c49190610d72565b73ffffffffffffffffffffffffffffffffffffffff161461041a576040517f08c379a000000000000000000000000000000000000000000000000000000000815260040161041190610e11565b60405180910390fd5b8173ffffffffffffffffffffffffffffffffffffffff16631e6e5263336040518263ffffffff1660e01b81526004016104539190610b52565b600060405180830381600087803b15801561046d57600080fd5b505af1158015610481573d6000803e3d6000fd5b505050505050565b60008173ffffffffffffffffffffffffffffffffffffffff1663200d2ed26040518163ffffffff1660e01b8152600401602060405180830381865afa1580156104d6573d6000803e3d6000fd5b505050506040513d601f19601f820116820180604052508101906104fa9190610e56565b9050919050565b6002602052816000526040600020818154811061051d57600080fd5b906000526020600020016000915091509054906101000a900473ffffffffffffffffffffffffffffffffffffffff1681565b6060600260003373ffffffffffffffffffffffffffffffffffffffff1673ffffffffffffffffffffffffffffffffffffffff16815260200190815260200160002080548060200260200160405190810160405280929190818152602001828054801561061057602002820191906000526020600020905b8160009054906101000a900473ffffffffffffffffffffffffffffffffffffffff1673ffffffffffffffffffffffffffffffffffffffff16815260200190600101908083116105c6575b5050505050905090565b6001600481111561062e5761062d610a3b565b5b60008054906101000a900473ffffffffffffffffffffffffffffffffffffffff1673ffffffffffffffffffffffffffffffffffffffff166344276733336040518263ffffffff1660e01b81526004016106879190610b52565b602060405180830381865afa1580156106a4573d6000803e3d6000fd5b505050506040513d601f19601f820116820180604052508101906106c89190610cb3565b60ff1660048111156106dd576106dc610a3b565b5b60048111156106ef576106ee610a3b565b5b1461072f576040517f08c379a000000000000000000000000000000000000000000000000000000000815260040161072690610d3d565b60405180910390fd5b803373ffffffffffffffffffffffffffffffffffffffff168173ffffffffffffffffffffffffffffffffffffffff166356fb40d76040518163ffffffff1660e01b8152600401602060405180830381865afa158015610792573d6000803e3d6000fd5b505050506040513d601f19601f820116820180604052508101906107b69190610d72565b73ffffffffffffffffffffffffffffffffffffffff161461080c576040517f08c379a000000000000000000000000000000000000000000000000000000000815260040161080390610e11565b60405180910390fd5b8173ffffffffffffffffffffffffffffffffffffffff16637ee9e2d8336040518263ffffffff1660e01b81526004016108459190610b52565b600060405180830381600087803b15801561085f57600080fd5b505af1158015610873573d6000803e3d6000fd5b505050505050565b6000600260003373ffffffffffffffffffffffffffffffffffffffff1673ffffffffffffffffffffffffffffffffffffffff16815260200190815260200160002082815481106108ce576108cd610e83565b5b9060005260206000200160009054906101000a900473ffffffffffffffffffffffffffffffffffffffff169050919050565b600080fd5b600073ffffffffffffffffffffffffffffffffffffffff82169050919050565b600061093082610905565b9050919050565b61094081610925565b811461094b57600080fd5b50565b60008135905061095d81610937565b92915050565b6000806040838503121561097a57610979610900565b5b60006109888582860161094e565b92505060206109998582860161094e565b9150509250929050565b60006109ae82610925565b9050919050565b6109be816109a3565b81146109c957600080fd5b50565b6000813590506109db816109b5565b92915050565b6000602082840312156109f7576109f6610900565b5b6000610a05848285016109cc565b91505092915050565b600060208284031215610a2457610a23610900565b5b6000610a328482850161094e565b91505092915050565b7f4e487b7100000000000000000000000000000000000000000000000000000000600052602160045260246000fd5b60078110610a7b57610a7a610a3b565b5b50565b6000819050610a8c82610a6a565b919050565b6000610a9c82610a7e565b9050919050565b610aac81610a91565b82525050565b6000602082019050610ac76000830184610aa3565b92915050565b6000819050919050565b610ae081610acd565b8114610aeb57600080fd5b50565b600081359050610afd81610ad7565b92915050565b60008060408385031215610b1a57610b19610900565b5b6000610b288582860161094e565b9250506020610b3985828601610aee565b9150509250929050565b610b4c81610925565b82525050565b6000602082019050610b676000830184610b43565b92915050565b600081519050919050565b600082825260208201905092915050565b6000819050602082019050919050565b610ba281610925565b82525050565b6000610bb48383610b99565b60208301905092915050565b6000602082019050919050565b6000610bd882610b6d565b610be28185610b78565b9350610bed83610b89565b8060005b83811015610c1e578151610c058882610ba8565b9750610c1083610bc0565b925050600181019050610bf1565b5085935050505092915050565b60006020820190508181036000830152610c458184610bcd565b905092915050565b600060208284031215610c6357610c62610900565b5b6000610c7184828501610aee565b91505092915050565b600060ff82169050919050565b610c9081610c7a565b8114610c9b57600080fd5b50565b600081519050610cad81610c87565b92915050565b600060208284031215610cc957610cc8610900565b5b6000610cd784828501610c9e565b91505092915050565b600082825260208201905092915050565b7f4f6e6c792073656c6c6572206861732061636365737300000000000000000000600082015250565b6000610d27601683610ce0565b9150610d3282610cf1565b602082019050919050565b60006020820190508181036000830152610d5681610d1a565b9050919050565b600081519050610d6c81610937565b92915050565b600060208284031215610d8857610d87610900565b5b6000610d9684828501610d5d565b91505092915050565b7f496e76616c69642073656c6c6572206164647265737320666f7220746869732060008201527f6f72646572000000000000000000000000000000000000000000000000000000602082015250565b6000610dfb602583610ce0565b9150610e0682610d9f565b604082019050919050565b60006020820190508181036000830152610e2a81610dee565b9050919050565b60078110610e3e57600080fd5b50565b600081519050610e5081610e31565b92915050565b600060208284031215610e6c57610e6b610900565b5b6000610e7a84828501610e41565b91505092915050565b7f4e487b7100000000000000000000000000000000000000000000000000000000600052603260045260246000fdfea264697066735822122041d77883562f94af02b63192ea0de69e4a16aa7ddf8f9de219150a75a980a9a364736f6c63430008130033",
  "linkReferences": {},
  "deployedLinkReferences": {}
}