{
  "_format": "hh-sol-artifact-1",
  "contractName": "Seller",
  "sourceName": "contracts/Seller.sol",
  "abi": [
    {
      "inputs": [
        {
          "internalType": "contract Admin",
          "name": "adminAddress",
          "type": "address"
        }
      ],
      "stateMutability": "nonpayable",
      "type": "constructor"
    },
    {
      "inputs": [
        {
          "internalType": "contract Order",
          "name": "orderAddress",
          "type": "address"
        }
      ],
      "name": "confirmOrder",
      "outputs": [],
      "stateMutability": "nonpayable",
      "type": "function"
    },
    {
      "inputs": [],
      "name": "getAllOrders",
      "outputs": [
        {
          "internalType": "address[]",
          "name": "",
          "type": "address[]"
        }
      ],
      "stateMutability": "view",
      "type": "function"
    },
    {
      "inputs": [
        {
          "internalType": "uint256",
          "name": "index",
          "type": "uint256"
        }
      ],
      "name": "getOrderByIndex",
      "outputs": [
        {
          "internalType": "address",
          "name": "",
          "type": "address"
        }
      ],
      "stateMutability": "view",
      "type": "function"
    },
    {
      "inputs": [
        {
          "internalType": "address",
          "name": "",
          "type": "address"
        },
        {
          "internalType": "uint256",
          "name": "",
          "type": "uint256"
        }
      ],
      "name": "orders",
      "outputs": [
        {
          "internalType": "address",
          "name": "",
          "type": "address"
        }
      ],
      "stateMutability": "view",
      "type": "function"
    },
    {
      "inputs": [
        {
          "internalType": "contract Order",
          "name": "orderAddress",
          "type": "address"
        }
      ],
      "name": "packagingOrder",
      "outputs": [],
      "stateMutability": "nonpayable",
      "type": "function"
    },
    {
      "inputs": [
        {
          "internalType": "address",
          "name": "seller_ethAddress",
          "type": "address"
        },
        {
          "internalType": "address",
          "name": "orderAddress",
          "type": "address"
        }
      ],
      "name": "setNewOrder",
      "outputs": [],
      "stateMutability": "nonpayable",
      "type": "function"
    }
  ],
  "bytecode": "0x608060405234801561001057600080fd5b5060405162000e6f38038062000e6f833981810160405281019061003491906100ef565b806000806101000a81548173ffffffffffffffffffffffffffffffffffffffff021916908373ffffffffffffffffffffffffffffffffffffffff1602179055505061011c565b600080fd5b600073ffffffffffffffffffffffffffffffffffffffff82169050919050565b60006100aa8261007f565b9050919050565b60006100bc8261009f565b9050919050565b6100cc816100b1565b81146100d757600080fd5b50565b6000815190506100e9816100c3565b92915050565b6000602082840312156101055761010461007a565b5b6000610113848285016100da565b91505092915050565b610d43806200012c6000396000f3fe608060405234801561001057600080fd5b50600436106100625760003560e01c8063191ad8a1146100675780631e6e526314610083578063793b8c6d1461009f5780637bea0d1c146100cf5780637ee9e2d8146100ed578063dabe8a7114610109575b600080fd5b610081600480360381019061007c91906108a0565b610139565b005b61009d6004803603810190610098919061091e565b6101dd565b005b6100b960048036038101906100b49190610981565b61043e565b6040516100c691906109d0565b60405180910390f35b6100d761048c565b6040516100e49190610aa9565b60405180910390f35b6101076004803603810190610102919061091e565b610557565b005b610123600480360381019061011e9190610acb565b6107b8565b60405161013091906109d0565b60405180910390f35b600260008373ffffffffffffffffffffffffffffffffffffffff1673ffffffffffffffffffffffffffffffffffffffff168152602001908152602001600020819080600181540180825580915050600190039060005260206000200160009091909190916101000a81548173ffffffffffffffffffffffffffffffffffffffff021916908373ffffffffffffffffffffffffffffffffffffffff1602179055505050565b600160048111156101f1576101f0610af8565b5b60008054906101000a900473ffffffffffffffffffffffffffffffffffffffff1673ffffffffffffffffffffffffffffffffffffffff166344276733336040518263ffffffff1660e01b815260040161024a91906109d0565b602060405180830381865afa158015610267573d6000803e3d6000fd5b505050506040513d601f19601f8201168201806040525081019061028b9190610b60565b60ff1660048111156102a05761029f610af8565b5b60048111156102b2576102b1610af8565b5b146102f2576040517f08c379a00000000000000000000000000000000000000000000000000000000081526004016102e990610bea565b60405180910390fd5b803373ffffffffffffffffffffffffffffffffffffffff168173ffffffffffffffffffffffffffffffffffffffff166356fb40d76040518163ffffffff1660e01b8152600401602060405180830381865afa158015610355573d6000803e3d6000fd5b505050506040513d601f19601f820116820180604052508101906103799190610c1f565b73ffffffffffffffffffffffffffffffffffffffff16146103cf576040517f08c379a00000000000000000000000000000000000000000000000000000000081526004016103c690610cbe565b60405180910390fd5b8173ffffffffffffffffffffffffffffffffffffffff16631e6e5263336040518263ffffffff1660e01b815260040161040891906109d0565b600060405180830381600087803b15801561042257600080fd5b505af1158015610436573d6000803e3d6000fd5b505050505050565b6002602052816000526040600020818154811061045a57600080fd5b906000526020600020016000915091509054906101000a900473ffffffffffffffffffffffffffffffffffffffff1681565b6060600260003373ffffffffffffffffffffffffffffffffffffffff1673ffffffffffffffffffffffffffffffffffffffff16815260200190815260200160002080548060200260200160405190810160405280929190818152602001828054801561054d57602002820191906000526020600020905b8160009054906101000a900473ffffffffffffffffffffffffffffffffffffffff1673ffffffffffffffffffffffffffffffffffffffff1681526020019060010190808311610503575b5050505050905090565b6001600481111561056b5761056a610af8565b5b60008054906101000a900473ffffffffffffffffffffffffffffffffffffffff1673ffffffffffffffffffffffffffffffffffffffff166344276733336040518263ffffffff1660e01b81526004016105c491906109d0565b602060405180830381865afa1580156105e1573d6000803e3d6000fd5b505050506040513d601f19601f820116820180604052508101906106059190610b60565b60ff16600481111561061a57610619610af8565b5b600481111561062c5761062b610af8565b5b1461066c576040517f08c379a000000000000000000000000000000000000000000000000000000000815260040161066390610bea565b60405180910390fd5b803373ffffffffffffffffffffffffffffffffffffffff168173ffffffffffffffffffffffffffffffffffffffff166356fb40d76040518163ffffffff1660e01b8152600401602060405180830381865afa1580156106cf573d6000803e3d6000fd5b505050506040513d601f19601f820116820180604052508101906106f39190610c1f565b73ffffffffffffffffffffffffffffffffffffffff1614610749576040517f08c379a000000000000000000000000000000000000000000000000000000000815260040161074090610cbe565b60405180910390fd5b8173ffffffffffffffffffffffffffffffffffffffff16637ee9e2d8336040518263ffffffff1660e01b815260040161078291906109d0565b600060405180830381600087803b15801561079c57600080fd5b505af11580156107b0573d6000803e3d6000fd5b505050505050565b6000600260003373ffffffffffffffffffffffffffffffffffffffff1673ffffffffffffffffffffffffffffffffffffffff168152602001908152602001600020828154811061080b5761080a610cde565b5b9060005260206000200160009054906101000a900473ffffffffffffffffffffffffffffffffffffffff169050919050565b600080fd5b600073ffffffffffffffffffffffffffffffffffffffff82169050919050565b600061086d82610842565b9050919050565b61087d81610862565b811461088857600080fd5b50565b60008135905061089a81610874565b92915050565b600080604083850312156108b7576108b661083d565b5b60006108c58582860161088b565b92505060206108d68582860161088b565b9150509250929050565b60006108eb82610862565b9050919050565b6108fb816108e0565b811461090657600080fd5b50565b600081359050610918816108f2565b92915050565b6000602082840312156109345761093361083d565b5b600061094284828501610909565b91505092915050565b6000819050919050565b61095e8161094b565b811461096957600080fd5b50565b60008135905061097b81610955565b92915050565b600080604083850312156109985761099761083d565b5b60006109a68582860161088b565b92505060206109b78582860161096c565b9150509250929050565b6109ca81610862565b82525050565b60006020820190506109e560008301846109c1565b92915050565b600081519050919050565b600082825260208201905092915050565b6000819050602082019050919050565b610a2081610862565b82525050565b6000610a328383610a17565b60208301905092915050565b6000602082019050919050565b6000610a56826109eb565b610a6081856109f6565b9350610a6b83610a07565b8060005b83811015610a9c578151610a838882610a26565b9750610a8e83610a3e565b925050600181019050610a6f565b5085935050505092915050565b60006020820190508181036000830152610ac38184610a4b565b905092915050565b600060208284031215610ae157610ae061083d565b5b6000610aef8482850161096c565b91505092915050565b7f4e487b7100000000000000000000000000000000000000000000000000000000600052602160045260246000fd5b600060ff82169050919050565b610b3d81610b27565b8114610b4857600080fd5b50565b600081519050610b5a81610b34565b92915050565b600060208284031215610b7657610b7561083d565b5b6000610b8484828501610b4b565b91505092915050565b600082825260208201905092915050565b7f4f6e6c792073656c6c6572206861732061636365737300000000000000000000600082015250565b6000610bd4601683610b8d565b9150610bdf82610b9e565b602082019050919050565b60006020820190508181036000830152610c0381610bc7565b9050919050565b600081519050610c1981610874565b92915050565b600060208284031215610c3557610c3461083d565b5b6000610c4384828501610c0a565b91505092915050565b7f496e76616c69642073656c6c6572206164647265737320666f7220746869732060008201527f6f72646572000000000000000000000000000000000000000000000000000000602082015250565b6000610ca8602583610b8d565b9150610cb382610c4c565b604082019050919050565b60006020820190508181036000830152610cd781610c9b565b9050919050565b7f4e487b7100000000000000000000000000000000000000000000000000000000600052603260045260246000fdfea2646970667358221220c8bc7539664286eec3a6fa33963084c9879d58225f017f599c7c6ae9f517e48b64736f6c63430008130033",
  "linkReferences": {},
  "deployedLinkReferences": {}
}