{
  "_format": "hh-sol-artifact-1",
  "contractName": "Admin",
  "sourceName": "contracts/Admin.sol",
  "abi": [
    {
      "anonymous": false,
      "inputs": [
        {
          "indexed": true,
          "internalType": "address",
          "name": "ethAddress",
          "type": "address"
        },
        {
          "indexed": false,
          "internalType": "uint8",
          "name": "role",
          "type": "uint8"
        }
      ],
      "name": "ReassignRole",
      "type": "event"
    },
    {
      "anonymous": false,
      "inputs": [
        {
          "indexed": true,
          "internalType": "address",
          "name": "ethAddress",
          "type": "address"
        },
        {
          "indexed": false,
          "internalType": "string",
          "name": "name",
          "type": "string"
        }
      ],
      "name": "RegisterUser",
      "type": "event"
    },
    {
      "anonymous": false,
      "inputs": [
        {
          "indexed": true,
          "internalType": "address",
          "name": "ethAddress",
          "type": "address"
        },
        {
          "indexed": false,
          "internalType": "uint8",
          "name": "role",
          "type": "uint8"
        }
      ],
      "name": "RevokeRole",
      "type": "event"
    },
    {
      "anonymous": false,
      "inputs": [
        {
          "indexed": true,
          "internalType": "address",
          "name": "ethAddress",
          "type": "address"
        },
        {
          "indexed": false,
          "internalType": "string",
          "name": "role",
          "type": "string"
        }
      ],
      "name": "UpdateLocation",
      "type": "event"
    },
    {
      "inputs": [
        {
          "internalType": "uint8",
          "name": "role",
          "type": "uint8"
        }
      ],
      "name": "assignRole",
      "outputs": [],
      "stateMutability": "nonpayable",
      "type": "function"
    },
    {
      "inputs": [
        {
          "internalType": "address",
          "name": "ethAddress",
          "type": "address"
        }
      ],
      "name": "getRole",
      "outputs": [
        {
          "internalType": "uint8",
          "name": "",
          "type": "uint8"
        }
      ],
      "stateMutability": "view",
      "type": "function"
    },
    {
      "inputs": [],
      "name": "getUser",
      "outputs": [
        {
          "components": [
            {
              "internalType": "address",
              "name": "ethAddress",
              "type": "address"
            },
            {
              "internalType": "string",
              "name": "name",
              "type": "string"
            },
            {
              "internalType": "string",
              "name": "location",
              "type": "string"
            },
            {
              "internalType": "enum Admin.UserRole",
              "name": "role",
              "type": "uint8"
            }
          ],
          "internalType": "struct Admin.UserData",
          "name": "",
          "type": "tuple"
        }
      ],
      "stateMutability": "view",
      "type": "function"
    },
    {
      "inputs": [
        {
          "internalType": "string",
          "name": "name",
          "type": "string"
        },
        {
          "internalType": "string",
          "name": "location",
          "type": "string"
        },
        {
          "internalType": "uint256",
          "name": "role",
          "type": "uint256"
        }
      ],
      "name": "registerUser",
      "outputs": [],
      "stateMutability": "nonpayable",
      "type": "function"
    },
    {
      "inputs": [],
      "name": "revokeRole",
      "outputs": [],
      "stateMutability": "nonpayable",
      "type": "function"
    },
    {
      "inputs": [
        {
          "internalType": "string",
          "name": "location",
          "type": "string"
        }
      ],
      "name": "updateLocation",
      "outputs": [],
      "stateMutability": "nonpayable",
      "type": "function"
    }
  ],
  "bytecode": "0x608060405234801561001057600080fd5b50611604806100206000396000f3fe608060405234801561001057600080fd5b50600436106100625760003560e01c8063437deaf0146100675780634427673314610071578063832880e7146100a1578063932354c1146100bf578063ec0b7b41146100db578063f209e74f146100f7575b600080fd5b61006f610113565b005b61008b60048036038101906100869190610c42565b6102fc565b6040516100989190610c8b565b60405180910390f35b6100a9610366565b6040516100b69190610e26565b60405180910390f35b6100d960048036038101906100d49190610f7d565b610571565b005b6100f560048036038101906100f09190610ff2565b610720565b005b610111600480360381019061010c9190611055565b61091e565b005b3373ffffffffffffffffffffffffffffffffffffffff166000803373ffffffffffffffffffffffffffffffffffffffff1673ffffffffffffffffffffffffffffffffffffffff16815260200190815260200160002060000160009054906101000a900473ffffffffffffffffffffffffffffffffffffffff1673ffffffffffffffffffffffffffffffffffffffff16146101e2576040517f08c379a00000000000000000000000000000000000000000000000000000000081526004016101d99061113d565b60405180910390fd5b60046000803373ffffffffffffffffffffffffffffffffffffffff1673ffffffffffffffffffffffffffffffffffffffff16815260200190815260200160002060030160006101000a81548160ff0219169083600481111561024757610246610d45565b5b02179055503373ffffffffffffffffffffffffffffffffffffffff167fdc6f53b47a9dfbea7a15fceef0cd84711d3d79ccc0952111866167af5e59e2646000803373ffffffffffffffffffffffffffffffffffffffff1673ffffffffffffffffffffffffffffffffffffffff16815260200190815260200160002060030160009054906101000a900460ff1660048111156102e5576102e4610d45565b5b6040516102f29190610c8b565b60405180910390a2565b60008060008373ffffffffffffffffffffffffffffffffffffffff1673ffffffffffffffffffffffffffffffffffffffff16815260200190815260200160002060030160009054906101000a900460ff16600481111561035f5761035e610d45565b5b9050919050565b61036e610b80565b6000803373ffffffffffffffffffffffffffffffffffffffff1673ffffffffffffffffffffffffffffffffffffffff1681526020019081526020016000206040518060800160405290816000820160009054906101000a900473ffffffffffffffffffffffffffffffffffffffff1673ffffffffffffffffffffffffffffffffffffffff1673ffffffffffffffffffffffffffffffffffffffff16815260200160018201805461041d9061118c565b80601f01602080910402602001604051908101604052809291908181526020018280546104499061118c565b80156104965780601f1061046b57610100808354040283529160200191610496565b820191906000526020600020905b81548152906001019060200180831161047957829003601f168201915b505050505081526020016002820180546104af9061118c565b80601f01602080910402602001604051908101604052809291908181526020018280546104db9061118c565b80156105285780601f106104fd57610100808354040283529160200191610528565b820191906000526020600020905b81548152906001019060200180831161050b57829003601f168201915b505050505081526020016003820160009054906101000a900460ff16600481111561055657610555610d45565b5b600481111561056857610567610d45565b5b81525050905090565b3373ffffffffffffffffffffffffffffffffffffffff166000803373ffffffffffffffffffffffffffffffffffffffff1673ffffffffffffffffffffffffffffffffffffffff16815260200190815260200160002060000160009054906101000a900473ffffffffffffffffffffffffffffffffffffffff1673ffffffffffffffffffffffffffffffffffffffff1614610640576040517f08c379a00000000000000000000000000000000000000000000000000000000081526004016106379061113d565b60405180910390fd5b806000803373ffffffffffffffffffffffffffffffffffffffff1673ffffffffffffffffffffffffffffffffffffffff168152602001908152602001600020600201908161068e9190611369565b503373ffffffffffffffffffffffffffffffffffffffff167fc5502fcc9efc13943ede2d2e86711c46725412c846c29e9bc9fab9a3eb27a7046000803373ffffffffffffffffffffffffffffffffffffffff1673ffffffffffffffffffffffffffffffffffffffff16815260200190815260200160002060020160405161071591906114bf565b60405180910390a250565b3373ffffffffffffffffffffffffffffffffffffffff166000803373ffffffffffffffffffffffffffffffffffffffff1673ffffffffffffffffffffffffffffffffffffffff16815260200190815260200160002060000160009054906101000a900473ffffffffffffffffffffffffffffffffffffffff1673ffffffffffffffffffffffffffffffffffffffff16146107ef576040517f08c379a00000000000000000000000000000000000000000000000000000000081526004016107e69061113d565b60405180910390fd5b8060ff16600481111561080557610804610d45565b5b6000803373ffffffffffffffffffffffffffffffffffffffff1673ffffffffffffffffffffffffffffffffffffffff16815260200190815260200160002060030160006101000a81548160ff0219169083600481111561086857610867610d45565b5b02179055503373ffffffffffffffffffffffffffffffffffffffff167f79eb518536104c1eb444f17403a898a43577d8ccf24fbefe696bc04531cec23f6000803373ffffffffffffffffffffffffffffffffffffffff1673ffffffffffffffffffffffffffffffffffffffff16815260200190815260200160002060030160009054906101000a900460ff16600481111561090657610905610d45565b5b6040516109139190610c8b565b60405180910390a250565b600073ffffffffffffffffffffffffffffffffffffffff166000803373ffffffffffffffffffffffffffffffffffffffff1673ffffffffffffffffffffffffffffffffffffffff16815260200190815260200160002060000160009054906101000a900473ffffffffffffffffffffffffffffffffffffffff1673ffffffffffffffffffffffffffffffffffffffff16146109ee576040517f08c379a00000000000000000000000000000000000000000000000000000000081526004016109e590611553565b60405180910390fd5b60405180608001604052803373ffffffffffffffffffffffffffffffffffffffff168152602001848152602001838152602001826004811115610a3457610a33610d45565b5b6004811115610a4657610a45610d45565b5b8152506000803373ffffffffffffffffffffffffffffffffffffffff1673ffffffffffffffffffffffffffffffffffffffff16815260200190815260200160002060008201518160000160006101000a81548173ffffffffffffffffffffffffffffffffffffffff021916908373ffffffffffffffffffffffffffffffffffffffff1602179055506020820151816001019081610ae39190611369565b506040820151816002019081610af99190611369565b5060608201518160030160006101000a81548160ff02191690836004811115610b2557610b24610d45565b5b02179055509050503373ffffffffffffffffffffffffffffffffffffffff167fc0089fbf2e0ee14d29fd81c7fb2347d1157d316f6be7a41ec9aea11a11f48bfb84604051610b7391906115ac565b60405180910390a2505050565b6040518060800160405280600073ffffffffffffffffffffffffffffffffffffffff168152602001606081526020016060815260200160006004811115610bca57610bc9610d45565b5b81525090565b6000604051905090565b600080fd5b600080fd5b600073ffffffffffffffffffffffffffffffffffffffff82169050919050565b6000610c0f82610be4565b9050919050565b610c1f81610c04565b8114610c2a57600080fd5b50565b600081359050610c3c81610c16565b92915050565b600060208284031215610c5857610c57610bda565b5b6000610c6684828501610c2d565b91505092915050565b600060ff82169050919050565b610c8581610c6f565b82525050565b6000602082019050610ca06000830184610c7c565b92915050565b610caf81610c04565b82525050565b600081519050919050565b600082825260208201905092915050565b60005b83811015610cef578082015181840152602081019050610cd4565b60008484015250505050565b6000601f19601f8301169050919050565b6000610d1782610cb5565b610d218185610cc0565b9350610d31818560208601610cd1565b610d3a81610cfb565b840191505092915050565b7f4e487b7100000000000000000000000000000000000000000000000000000000600052602160045260246000fd5b60058110610d8557610d84610d45565b5b50565b6000819050610d9682610d74565b919050565b6000610da682610d88565b9050919050565b610db681610d9b565b82525050565b6000608083016000830151610dd46000860182610ca6565b5060208301518482036020860152610dec8282610d0c565b91505060408301518482036040860152610e068282610d0c565b9150506060830151610e1b6060860182610dad565b508091505092915050565b60006020820190508181036000830152610e408184610dbc565b905092915050565b600080fd5b600080fd5b7f4e487b7100000000000000000000000000000000000000000000000000000000600052604160045260246000fd5b610e8a82610cfb565b810181811067ffffffffffffffff82111715610ea957610ea8610e52565b5b80604052505050565b6000610ebc610bd0565b9050610ec88282610e81565b919050565b600067ffffffffffffffff821115610ee857610ee7610e52565b5b610ef182610cfb565b9050602081019050919050565b82818337600083830152505050565b6000610f20610f1b84610ecd565b610eb2565b905082815260208101848484011115610f3c57610f3b610e4d565b5b610f47848285610efe565b509392505050565b600082601f830112610f6457610f63610e48565b5b8135610f74848260208601610f0d565b91505092915050565b600060208284031215610f9357610f92610bda565b5b600082013567ffffffffffffffff811115610fb157610fb0610bdf565b5b610fbd84828501610f4f565b91505092915050565b610fcf81610c6f565b8114610fda57600080fd5b50565b600081359050610fec81610fc6565b92915050565b60006020828403121561100857611007610bda565b5b600061101684828501610fdd565b91505092915050565b6000819050919050565b6110328161101f565b811461103d57600080fd5b50565b60008135905061104f81611029565b92915050565b60008060006060848603121561106e5761106d610bda565b5b600084013567ffffffffffffffff81111561108c5761108b610bdf565b5b61109886828701610f4f565b935050602084013567ffffffffffffffff8111156110b9576110b8610bdf565b5b6110c586828701610f4f565b92505060406110d686828701611040565b9150509250925092565b600082825260208201905092915050565b7f496e76616c6964204164647265737320466f756e640000000000000000000000600082015250565b60006111276015836110e0565b9150611132826110f1565b602082019050919050565b600060208201905081810360008301526111568161111a565b9050919050565b7f4e487b7100000000000000000000000000000000000000000000000000000000600052602260045260246000fd5b600060028204905060018216806111a457607f821691505b6020821081036111b7576111b661115d565b5b50919050565b60008190508160005260206000209050919050565b60006020601f8301049050919050565b600082821b905092915050565b60006008830261121f7fffffffffffffffffffffffffffffffffffffffffffffffffffffffffffffffff826111e2565b61122986836111e2565b95508019841693508086168417925050509392505050565b6000819050919050565b600061126661126161125c8461101f565b611241565b61101f565b9050919050565b6000819050919050565b6112808361124b565b61129461128c8261126d565b8484546111ef565b825550505050565b600090565b6112a961129c565b6112b4818484611277565b505050565b5b818110156112d8576112cd6000826112a1565b6001810190506112ba565b5050565b601f82111561131d576112ee816111bd565b6112f7846111d2565b81016020851015611306578190505b61131a611312856111d2565b8301826112b9565b50505b505050565b600082821c905092915050565b600061134060001984600802611322565b1980831691505092915050565b6000611359838361132f565b9150826002028217905092915050565b61137282610cb5565b67ffffffffffffffff81111561138b5761138a610e52565b5b611395825461118c565b6113a08282856112dc565b600060209050601f8311600181146113d357600084156113c1578287015190505b6113cb858261134d565b865550611433565b601f1984166113e1866111bd565b60005b82811015611409578489015182556001820191506020850194506020810190506113e4565b868310156114265784890151611422601f89168261132f565b8355505b6001600288020188555050505b505050505050565b600081546114488161118c565b61145281866110e0565b9450600182166000811461146d5760018114611483576114b6565b60ff1983168652811515602002860193506114b6565b61148c856111bd565b60005b838110156114ae5781548189015260018201915060208101905061148f565b808801955050505b50505092915050565b600060208201905081810360008301526114d9818461143b565b905092915050565b7f5573657220616c726561647920657869787374696e672077697468207468697360008201527f2065746820616464726573730000000000000000000000000000000000000000602082015250565b600061153d602c836110e0565b9150611548826114e1565b604082019050919050565b6000602082019050818103600083015261156c81611530565b9050919050565b600061157e82610cb5565b61158881856110e0565b9350611598818560208601610cd1565b6115a181610cfb565b840191505092915050565b600060208201905081810360008301526115c68184611573565b90509291505056fea2646970667358221220a6be39ae71c39be3541a7e25ec68ae79592d5e6701b158267564ac96b7c40cbd64736f6c63430008130033",
  "linkReferences": {},
  "deployedLinkReferences": {}
}